:020000040800F2
:100000001807002091040008990400089B040008C8
:100010009D0400089F040008A104000800000000DF
:10002000000000000000000000000000A304000821
:10003000A504000800000000A7040008A9040008A7
:10004000AB040008AB040008AB040008AB040008D4
:10005000AB040008AB040008AB040008AB040008C4
:10006000AB040008AB040008AB040008AB040008B4
:10007000AB0400089D400008AB04000845400008A0
:10008000AB040008AB040008AB040008AB04000894
:10009000AB040008AB040008AB040008AB04000884
:1000A000AB040008AB040008AB040008AB04000874
:1000B000AB040008AB040008AB040008AB04000864
:1000C000AB040008AB040008AB040008AB04000854
:1000D000AB040008AB040008AB040008AB04000844
:1000E000AB040008AB040008AB040008AB04000834
:1000F000AB040008AB040008AB040008AB04000824
:10010000AB040008AB040008AB040008AB04000813
:10011000AB040008AB040008AB040008AB04000803
:10012000AB040008AB040008AB040008AB040008F3
:10013000AB040008AB040008AB040008AB040008E3
:10014000AB040008AB040008AB040008AB040008D3
:10015000AB040008AB040008AB040008AB040008C3
:10016000AB040008AB040008AB040008AB040008B3
:10017000AB040008AB040008AB040008AB040008A3
:10018000AB040008AB040008AB040008AB04000893
:10019000AB040008AB040008AB040008AB04000883
:1001A000AB040008AB040008AB04000800F002F840
:1001B00000F03CF80AA090E8000C82448344AAF1C5
:1001C0000107DA4501D100F031F8AFF2090EBAE8C3
:1001D0000F0013F0010F18BFFB1A43F0010318477B
:1001E000E888000008890000103A24BF78C878C168
:1001F000FAD8520724BF30C830C144BF04680C602D
:10020000704700000023002400250026103A28BF74
:1002100078C1FBD8520728BF30C148BF0B60704778
:100220001FB505F056FF1FBD10B510BD05F01BFF33
:100230001146FFF7F5FF03F040F905F039FF03B46D
:10024000FFF7F2FF03BC05F03DFF00000CB50020F6
:10025000019000908348006840F480308149086034
:1002600000BF8048006800F4003000900198401CF6
:100270000190009818B90198B0F5A04FF1D17948D4
:10028000006800F4003010B10120009001E000206F
:1002900000900098012860D172484030006840F01A
:1002A00080507049403108606F48006840F4404019
:1002B0006D4908606B48083000686A490831086079
:1002C0000846006840F4004008600846006840F4B2
:1002D000A05008606548091F0860081F006840F0CA
:1002E0008070091F086000BF5E48006800F0007061
:1002F0000028F9D05C48006840F480305A49086012
:1003000000BF5948406800F480300028F9D05648B2
:10031000006840F400305449086000BF524840680B
:1003200000F400300028F9D040F205705049086010
:100330004C480830006820F003004A490831086042
:100340000846006840F00200086000BF45480830D9
:10035000006800F00C000828F8D10CBD10B5454825
:10036000006840F47000434908603E48006840F06F
:1003700001003C49086000203A49083108603948CA
:1003800000683D490840374908603C48091D08603D
:10039000081F006820F48020091F086000203149F0
:1003A0000C310860FFF752FF4FF00060314980398F
:1003B000086010BD70B50020002202230024022135
:1003C000284D08352D6805F00C0020B1042806D012
:1003D000082834D107E02A4D2A4E356033E02A4DF3
:1003E000284E35602FE01F4D2D1D2D68C5F380541C
:1003F0001C4D2D1D2D6805F03F0154B1224DB5FB5C
:10040000F1F5184E361D3668C6F3881605FB06F260
:1004100009E01B4DB5FBF1F5124E361D3668C6F3EB
:10042000881605FB06F20F4D2D1D2D68C5F30145FD
:100430006D1C6B00B2FBF3F5124E356003E0104DFE
:10044000104E356000BF00BF064D08352D68C5F35E
:1004500003150E4E705D0B4D2D68C540094E35607D
:1004600070BD00000038024000700040195A40077B
:10047000003C024088ED00E0FFFFF6FE1030002453
:100480000024F4000000002000127A000400002084
:100490000948804709480047FEE7FEE7FEE7FEE718
:1004A000FEE7FEE7FEE7FEE7FEE7FEE70448054954
:1004B000054A064B704700005D030008AD010008C7
:1004C000180100201807002018030020180300203E
:1004D000016821F00101016000210160416081603B
:1004E000C160016121214161DB49884204D13D2184
:1004F000D94A103A91608CE0D7491831884205D129
:100500004FF47461D44A103A916082E0D24930319C
:10051000884205D14FF47411CF4A103A916078E0C7
:10052000CD494831884205D14FF07461CA4A103A2A
:1005300091606EE0C8496031884204D1C749C64A1B
:10054000103AD16065E0C4497831884204D1C44989
:10055000C14A103AD1605CE0BF499031884204D171
:10056000C049BD4A103AD16053E0BB49A831884226
:1005700005D14FF03D51B84A103AD16049E0BA492F
:10058000884204D13D21B84A083A116041E0B64999
:100590001831884205D14FF47461B34A083A1160AA
:1005A00037E0B1493031884205D14FF47411AE4A79
:1005B000083A11602DE0AC494831884205D14FF02E
:1005C0007461A94A083A116023E0A7496031884262
:1005D00004D1A249A44A121F11601AE0A24978313D
:1005E000884204D19E49A04A121F116011E09E4921
:1005F0009031884204D19B499B4A121F116008E048
:100600009949A831884204D14FF03D51964A121FB2
:100610001160704710B500220268944B1A40CC68F4
:100620000B6823434C6923438C692343CC692343E0
:100630000C6A23434C6A23438C6A23434C6B234349
:100640008C6B23431A430260426922F00702D1E90E
:100650000B3423431A4342610B6943604B68836048
:100660008B68C36010BD0021016041608160C16082
:10067000016141618161C161016241628162C16266
:10068000016341638163704721B1026842F0010256
:10069000026003E0026822F001020260704721B1AB
:1006A000026842F40042026003E0026822F4004261
:1006B0000260704721B1026842F02002026003E04C
:1006C000026822F0200202607047416070470146D4
:1006D000486880B2704722B1036843F40023036086
:1006E00003E0036823F4002303600161704721B134
:1006F000026842F48022026003E0026822F4802251
:10070000026070470AB1016100E0C16070470146B4
:1007100000200A6802F400220AB1012000E0002053
:100720007047014600200A6802F001020AB1012068
:1007300000E000207047014600204A6902F03800BE
:10074000704730B503460A4600200024464DAB42B0
:1007500002D24149103901E04349103902F00055F5
:100760000DB14C6800E00C68414D2C4004EA0205D4
:100770000DB1012000E0002030BD02463A4B9A4204
:1007800002D23548103801E03748103801F00053E4
:100790001BB1374B0B40C36002E0354B0B4083600D
:1007A000704710B501F080034BB122B1436943F0AB
:1007B0008003436103E0436923F0800343618029A0
:1007C0000BD02AB1036801F01E042343036004E048
:1007D000036801F01E04A343036010BD70B5024618
:1007E000002000240025204EB24202D21A4B103BBA
:1007F00001E01D4B103B1F4E0E4036B11E2606EA8F
:10080000D124166806EA040502E0566906F0800560
:1008100001F000560EB15C6800E01C68144E3440D4
:1008200004EA010616B10DB1012000E0002070BD00
:1008300002460D4B9A4202D20748103801E00A489E
:10084000103801F000531BB1094B0B40C36002E0AC
:10085000074B0B4083607047106002403D00002052
:10086000400F002000003D20106402403F801CF03B
:100870007D0F7D0F3C0F3C0F10B50121C80501F025
:10088000D3FF00214FF4000001F0CEFF10BD70B582
:100890000021002200230024E14D2D68E14E354067
:1008A000DF4E356035462D6806683543DC4E3560D1
:1008B00035466D6B25F00705756335466D6B4668EB
:1008C0003543D74E7563456835B9C5682902058A31
:1008D0002A04057D2B0621E04568012D05D1C56858
:1008E0002902058A2A04002318E04568022D05D153
:1008F000C56869010569EA0200230FE04568032D18
:1009000006D1C56869010569AA024569EB0305E0DE
:10091000C568290105692A0245692B0341EA0205D8
:10092000866835431D43BE4EB66B3543BC4EB5633A
:100930008569F56335462D6C6FF30D0535643546D5
:100940002D6CC6693543B64E3564858C2C0435460E
:100950006D6C05F04045756435466D6C066A26433E
:100960003543AF4E756470BD002101604160C160C8
:100970008160016141618161C161016241627047D1
:10098000A748006840F00100A54908607047A448E6
:10099000006840F00400A2490860704730B1A049E7
:1009A000096841F002019E4A116005E09C4909680E
:1009B00021F002019A4A11607047F0B5002100222F
:1009C0000023002400250026DFF854C20768CCF875
:1009D0000C7067463F696FF30D07CCF810706746DF
:1009E0003F69D0F804C047EA0C07DFF834C2CCF8FE
:1009F00010706746FF69DFF830C207EA0C07DFF8BE
:100A000020C2CCF81C70C768390107693A02878A8E
:100A10003B04077E3C066746D7F81CC087680F4337
:100A200017431F4327434CEA070C7D4FC7F81CC0F0
:100A30003F6A07F07F47DFF8E8C1CCF82070076A0B
:100A40003D02878C3E046746D7F820C0C7692F4314
:100A500037434CEA070C724FC7F820C0DFF8C0C11B
:100A6000876ACCF82C70F0BD002101604160816084
:100A7000C160016141618161C16101624162816264
:100A80007047F0B500210022002300240025002635
:100A9000DFF88CC10768CCF814706746BF696FF344
:100AA0000D07CCF818706746BF69D0F804C047EA54
:100AB0000C07DFF86CC1CCF8187067467F6ADFF866
:100AC00068C107EA0C07DFF858C1CCF82470C76882
:100AD000390107693A02878A3B04077E3C0667466C
:100AE000D7F824C087680F4317431F4327434CEAB6
:100AF000070C4B4FC7F824C0BF6A07F07F47DFF8E9
:100B000020C1CCF82870076A3D02878C3E046746F6
:100B1000D7F828C0C7692F4337434CEA070C404F2A
:100B2000C7F828C0DFF8F8C0876ACCF83070F0BD8D
:100B30000021016041608160C160016141618161AA
:100B4000C161016241628162704730B13449C96953
:100B500041F02001324AD16105E03149C96921F0F3
:100B600020012F4AD161704730B12D49496A41F0C7
:100B700020012B4A516205E02949496A21F02001F0
:100B8000274A5162704710B579B1254BDB6C4FF69F
:100B90000174A343224CE36402022346DB6C42F05F
:100BA000010423431E4CE36405E01D4BDB6C23F082
:100BB00001031B4CE36410BD19498864704729B1D7
:100BC000174A12680243164B1A6004E0144A12686E
:100BD0008243134B1A60704701460020104A526846
:100BE0000A400AB1012000E0002070470C498860EB
:100BF0007047014600200A0A094B5B6813400BB19D
:100C0000012000E00020064B1B680B4013B108B127
:100C1000012000E000207047000A01498860704709
:100C200000B00240FCE0FCFFC000FC000020414995
:100C30000860091D0860091D0860091D08603E481C
:100C40003C4914310860704700213A498279002AF2
:100C50003AD00A46126803689A430B461A600A1D86
:100C6000126803689A430B1D1A60027911440A68DE
:100C700003681A430A602F4A0832126803689A43CD
:100C80002C4B08331A601A1D126803689A43294BCB
:100C90000C331A604279102A0ED11A1F12680368A9
:100CA0001A43244B08331A601A1D126803681A434A
:100CB000204B0C331A600DE01E49427911440A683A
:100CC00003681A430A6005E0027911440A68036860
:100CD0009A430A6070470021016001710C21417143
:100CE0000021817170471349103109680143114A8D
:100CF000103211607047014600200E4A143212680B
:100D00000A400AB1012000E000207047094914316F
:100D10000860704701460020064A143212680A40F3
:100D20000AB1012000E00020704702491431086038
:100D300070470000003C0140FFFF7F0030B943F2E4
:100D4000DB028100A1F1C0410A6005E043F2D2025A
:100D50008100A1F1C0410A606FF07042411C89001E
:100D6000A1F1C0410A608100A1F1C041C1F8042194
:100D700070470021D0E901231A43C3681A4303696D
:100D80001A4343691A4383691A43C3691A43036ABE
:100D90001A43436A1A43836A1A43C36A1A43036BAA
:100DA0001A43436B1A4303689B00A3F1C0431A60C4
:100DB0008268082A0BD102689200A2F1C042126830
:100DC00042F0400302689200A2F1C0421360426BFD
:100DD000B2F5801F19D10268BAB14FF020425268B3
:100DE00022F470014FF020421268436B1A434FF017
:100DF00020431A601A46126842F480721A60826BAD
:100E0000128A521E41EA02525A60826B1268836B48
:100E10005B6842EA0312836B9B6842EA0322836B9E
:100E20009B8942EA0342836B1B8A42EA0352836B2B
:100E30001B7D42EA0362836B9B691A4303685B1C58
:100E40009B00A3F1C0431A60826AB2F5804F1BD1A8
:100E5000C26B1268C36B5B6842EA0312C36B9B6888
:100E600042EA0322C36B1B8A42EA0352C36B1B7D17
:100E700042EA0362C36B9B691A4303689B00A3F1B8
:100E8000C043C3F8042107E06FF07043026892008A
:100E9000A2F1C042C2F80431704700210160022172
:100EA0004160002181601021C16000210161C162A7
:100EB00041618161C1614FF4805101624900416229
:100EC00000218162016341630F21826B1160826B9B
:100ED0005160FF21826B91600F21826BD160826B28
:100EE0001161826B51610021826B91610F21C26B94
:100EF0001160C26B5160FF21C26B91600F21C26B08
:100F0000D160C26B1161C26B51610021C26B9161F2
:100F1000704751B18200A2F1C042126842F0010351
:100F20008200A2F1C042136009E08200A2F1C04237
:100F30001268FE4B1A408300A3F1C0431A60704749
:100F400010280AD118214FF0204211664021516625
:100F50004FF0FC319166D16610E01821F44A11601F
:100F600040214FF02042C2F884104FF0FC31F04A8B
:100F7000083211604FF02042C2F88C10704730B533
:100F8000002100220023446844F0080485682C43B3
:100F9000C5682C4305692C43456944EA45248569A5
:100FA00044EA4531C4692468C5696D6844EA05248A
:100FB000C5692D8944EA0544C5692D7B44EA05626B
:100FC000046A2468056A6D6844EA0524056A2D8967
:100FD00044EA0544056A2D7B44EA05630468102C45
:100FE00005D14FF020442166A266E36608E0D04CAC
:100FF00021604FF02044C4F88820CD4C0C3423608D
:1010000030BD10210160002141601021816000216C
:10101000C160016141618161FC21C2691160C269E5
:101020005160C2699160C269D160026A1160026A4E
:101030005160026A9160026AD160704799B11028CC
:1010400008D14FF02042126E42F004024FF02043CC
:101050001A661DE0B64A126842F004024FF02043BF
:10106000C3F8802014E0102809D14FF02042126EFE
:10107000AE4BDB1E1A404FF020431A6608E0AC4A24
:101080001268AA4BDB1E1A404FF02043C3F88020A1
:10109000704799B1102808D14FF02042126E42F0EB
:1010A00040024FF020431A661DE0A14A126842F048
:1010B00040024FF02043C3F8802014E0102809D1EB
:1010C0004FF02042126E994B3F3B1A404FF02043A5
:1010D0001A6608E0964A1268944B3F3B1A404FF05C
:1010E0002043C3F88020704701460020102903D117
:1010F0004FF02042506F02E08D4A14321068704762
:1011000018208B492031086000200906C1F8A4008E
:101110004FF0FC30864928310860091D0860091D20
:1011200008607047016841F01001426841EA4221BD
:10113000826841EA42317E4A20321160C168096802
:10114000C268526841EA0221C268128941EA02413A
:10115000C268127B41EA0261754A28321160016956
:1011600009680269526841EA02210269128941EA6A
:1011700002410269127B41EA02616D4A2C32116020
:10118000416909684269526841EA0221426912894B
:1011900041EA02414269127B41EA02614FF020427A
:1011A000C2F8B01070470021016041608160FC21ED
:1011B000C2681160C2685160C2689160C268D16043
:1011C0000269116002695160026991600269D1602F
:1011D0004269116042695160426991604269D1601F
:1011E000704748B152492031096841F004014FF07D
:1011F0002042C2F8A01009E04D49203109684B4A4D
:10120000D21E11404FF02042C2F8A01070474FF498
:1012100034728100A1F1C041C1F840216FF07042E9
:101220004349C83141F820200021414AD0321160A1
:101230005206C2F854113E4AD8321160704770B558
:101240000021002200230024D0E901563543C6685E
:101250003543066935434669354386693543C66972
:101260003543066A3543466A45EA0601056835B9DD
:101270000568AD00A5F1C045C5F840110EE0D0E904
:1012800007563543466A45EA0603294DC0352B60AB
:101290000568AD00A5F1C045C5F84011056835BB2E
:1012A000856A2D686D1E866A7668761E45EA061682
:1012B000856AAD686D1E46EA0526856AED686D1E75
:1012C00046EA0536856A2D8A6D1E46EA0546856A18
:1012D000AD8A6D1E46EA0556856A2D7E6D1E46EA6C
:1012E0000562134DC835066845F8262025E0856A55
:1012F0002D686D1E866A7668761E45EA0616856A32
:10130000AD686D1E46EA0526856A2D8A6D1E46EA81
:101310000542856AED686D1E2E03856AAD8A6D1ED5
:1013200046EA0554024DC8352C6003E0FEFF0F006D
:10133000800000A0066845F8262070BD00210160ED
:10134000416081601021C1604021016180214161C3
:10135000890081610021C161016241621021826ABC
:101360001160826A5160826A9160826AD160826A89
:101370001161826A5161826A916170470021D0E9EE
:1013800000231A4383685B1E42EA4312C36842EAA1
:101390004321A44A116070470146002029B9A14A9F
:1013A0000832126802F0060005E09E4A0832126810
:1013B00002F01802900870479A49091D096841EA2D
:1013C00040014FF02042C2F8541170479549096816
:1013D00041EA40114FF02042C2F85011704761B10C
:1013E0008200A2F1C042D2F8402142F40073820090
:1013F000A2F1C042C2F840310CE08200A2F1C0422A
:10140000D2F8402147F6FF531A408300A3F1C043AE
:10141000C3F84021704710B552B3102807D14FF0E0
:1014200020435B6E0B434FF0204463664AE0B0F507
:10143000807F08D17B4BCC3B1B680B434FF0204493
:10144000C4F884303EE0B0F5805F08D1754BAC3B0A
:101450001B680B434FF02044C4F8A43032E0714BBA
:101460001B1D1B680B434FF02044C4F8543129E086
:10147000102807D14FF020435B6E8B434FF0204480
:1014800063661FE0B0F5807F08D1664BCC3B1B68DC
:101490008B434FF02044C4F8843013E0B0F5805FF4
:1014A00008D1604BAC3B1B688B434FF02044C4F821
:1014B000A43007E05B4B1B1D1B688B434FF020449F
:1014C000C4F8543110BD10B5024600200023102A84
:1014D00003D14FF02044636E10E0B2F5807F03D15A
:1014E000504CCC3C236809E0B2F5805F03D14D4CF1
:1014F000AC3C236802E04B4C0834236803EA010447
:101500008C4201D0002000E0012010BD102807D13E
:101510004FF02042526E8A434FF020435A661FE03C
:10152000B0F5807F08D13F4ACC3A12688A434FF029
:101530002043C3F8842013E0B0F5805F08D1394A16
:10154000AC3A12688A434FF02043C3F8A42007E066
:10155000344A121D12688A434FF02043C3F85421C5
:101560007047F0B502460020002300240025002625
:10157000102A03D14FF020477B6E13E0B2F5807F35
:1015800003D1284FCC3F3B680CE0B2F5805F03D11C
:10159000244FAC3F3B6805E0224F3F1D3B68FF06F0
:1015A000D7F8584103EA01060AB1012A02D104F032
:1015B000010501E003EAD10515B10EB1012000E0FB
:1015C0000020F0BD102808D14FF02042526E22EAD0
:1015D000D1024FF020435A6622E0B0F5807F09D156
:1015E000104ACC3A126822EAD1024FF02043C3F8E5
:1015F000842015E0B0F5805F09D10A4AAC3A126840
:1016000022EAD1024FF02043C3F8A42008E0054AA3
:10161000121D126842F001024FF02043C3F854211A
:1016200070470000500100A010B50446984884425D
:1016300008D10121084601F0F7F80021012001F04E
:10164000F3F876E09348844208D10121022001F0AA
:10165000EBF80021022001F0E7F86AE08E488442AE
:1016600008D10121042001F0DFF80021042001F05D
:10167000DBF85EE08948844208D10121082001F0AE
:10168000D3F80021082001F0CFF852E084488442CA
:1016900008D10121102001F0C7F80021102001F02D
:1016A000C3F846E07F48844208D10121202001F0A0
:1016B000BBF80021202001F0B7F83AE07A488442D4
:1016C00008D10121402001F0AFF80021402001F0B5
:1016D000ABF82EE07548844208D10121802001F04A
:1016E000A3F80021802001F09FF822E07048844296
:1016F00008D10121801501F097F80021A01501F013
:1017000093F816E06B48844208D10121401501F09E
:101710008BF80021601501F087F80AE066488442E2
:1017200007D10121001501F07FF80021201501F0FB
:101730007BF810BDF0B50A4600210023002400BF4D
:101740003DE0012505FA01F3156805EA03049C4212
:1017500034D105684F000326BE40B54305601579B6
:101760004E00B5400668354305601579012D02D05D
:101770001579022D16D185684F000326BE40B5436A
:10178000856055794E00B54086683543856045686B
:1017900001268E40B5434560456896798E40B6B2C5
:1017A00035434560C5684F000326BE40B543C5605C
:1017B000D5794E00B540C6683543C560491C10292F
:1017C000BFD3F0BD4FF6FF7101600021017141717F
:1017D0008171C171704708B54FF480320092009A50
:1017E0000A430092009AC261C161009AC261C26953
:1017F0000092C269009208BD0246002013690B40A6
:101800000BB1012000E0002070470146086980B25A
:1018100070470246002053690B400BB1012000E0E5
:10182000002070470146486980B2704701837047C5
:10183000418370470AB1018300E0418370474161F1
:10184000704742694A4042617047F0B50023002466
:101850004D07ED0E02FA05F3CE1000F1200555F804
:1018600026504E07F70E0F26BE40B543CF1000F1AD
:10187000200646F82750CE1000F1200555F82650D6
:1018800045EA0304CE1000F1200545F82640F0BDDE
:10189000000002400004024000080240000C024028
:1018A000001002400014024000180240001C0240D8
:1018B00000200240002402400028024010B50446E7
:1018C000F848844209D10121480500F0E0FF0021D9
:1018D0004FF4001000F0DBFF18E0F348844209D118
:1018E0000121880500F0D3FF00214FF4800000F0B3
:1018F000CEFF0BE0ED48844208D10121C80500F07D
:10190000C6FF00214FF4000000F0C1FF10BD2DE91B
:10191000FF4704460D460026B1460427DFF89083B2
:10192000A6884FF6C0700640684600F043FEDDF81A
:101930000880E048B8FBF0F01FFA80F946EA090693
:10194000A68020884FF6FE71084020800026DA49E4
:10195000286888420CD828684000B8FBF0F087B2AD
:10196000042F00DA04273E4309F10100208427E018
:10197000E8884BF6FF71884206D1286800EB4000EA
:10198000B8FBF0F087B209E0286800EBC00101EB7A
:101990000010B8FBF0F087B247F48047C7F30B00A4
:1019A00008B947F0010747F4004006434FF496702A
:1019B00009FB00F04FF47A7190FBF1F0401C208499
:1019C000A683208840F00100208026884FF6F5305D
:1019D0000640A8886989084306432680A889298982
:1019E00008432081BDE8FF8741F288310160002172
:1019F00081804BF6FF71C1800021018141814FF44C
:101A000080418181704721B1028842F00102028049
:101A100004E002884FF6FE731A400280704729B135
:101A2000828C4FF6EF731A40828403E0828C42F07E
:101A30001002828470470A460021818C4FF6F073B1
:101A4000194002F00F0319438184704721B10288C5
:101A500042F48072028004E002884FF6FF631A406D
:101A60000280704721B1028842F40072028004E0D3
:101A700002884FF6FF531A400280704712B141F0BE
:101A8000010101E001F0FE010182704721B10288ED
:101A900042F48062028004E002884FF6FF331A406D
:101AA000028070470A46002181894FF60173194070
:101AB00002F0FE0319438181704721B1828942F00F
:101AC0000102828104E082894FF6FE731A4082810E
:101AD000704721B1028842F04002028004E002888F
:101AE0004FF6BF731A400280704721B1028842F45A
:101AF0000042028003E00288C2F30E0202807047B7
:101B000021B9028842F08002028004E002884FF688
:101B10007F731A4002807047B1F5804F05D0828BE9
:101B20004BF6FF731A40828303E0828B42F48042BB
:101B300082837047B1F5006F04D1028842F40062DD
:101B4000028004E002884FF2FF731A40028070475F
:101B5000B1F5005F04D1028842F40052028004E033
:101B600002884DF6FF731A400280704721B1028847
:101B700042F01002028004E002884FF6EF731A4030
:101B800002807047018270470146088AC0B27047E0
:101B900021B1028842F48052028004E002884EF6AD
:101BA000FF731A4002807047B1F5006F04D10288BC
:101BB00042F40062028004E002884FF2FF731A4090
:101BC0000280704721B1028842F02002028004E0C6
:101BD00002884FF6DF731A40028070470146088B77
:101BE0000012704721B1828842F40062828004E0D2
:101BF00082884FF2FF731A408280704721B1828839
:101C000042F48052828004E082884EF6FF731A40CC
:101C10008280704708B5024600200090009200982C
:101C2000084400900098008808BD1AB183880B43CF
:101C3000838002E083888B438380704770B50246BF
:101C40000024002500230020958A138B1B0445EAFD
:101C5000030626F07F4404EA01068E4201D10120EA
:101C600000E0002070BD10B50146002000230022D6
:101C70008B8A0A8B120443EA020424F07F4010BDD1
:101C80000CB50246002000230193009300920B0F35
:101C9000019321F07F41019B83B1009B143300939A
:101CA00010E000000054004000580040005C00407C
:101CB00000127A0040420F00A0860100090C009B30
:101CC00018330093009B1B680B400BB1012000E010
:101CD00000200CBD002221F07F42D3438382704755
:101CE00030B5024600200023948801F0E06504EA44
:101CF000154321F07F41948A0C4014B10BB10120AF
:101D000000E0002030BD002221F07F42D3438382D7
:101D10007047000010B50121880600F0C9FD0021C0
:101D20004FF0806000F0C4FD10BDF0B5002100222E
:101D30000023002400250026FE4F3F68DFF8F8C38B
:101D400007EA0C07DFF8ECC3CCF80070078A390407
:101D500067463F68D0F814C04CEA010C47EA0C070C
:101D6000DFF8D0C3CCF800700CF104073F68DFF84F
:101D7000C8C307EA0C07DFF8BCC30CF1040CCCF8AD
:101D80000070078B3A0467463F68D0F81CC04CEAE5
:101D9000020C47EA0C07DFF89CC30CF1040CCCF8EA
:101DA00000700CF104073F68DFF88CC307EA0C07EA
:101DB000DFF880C30CF1080CCCF80070078C3B04F2
:101DC00067463F68D0F824C04CEA030C47EA0C078A
:101DD000DFF860C30CF1080CCCF800700CF10407BC
:101DE0003F68DFF854C307EA0C07DFF848C30CF17B
:101DF0000C0CCCF80070078D3C046746D7F800C087
:101E0000C76A27434CEA070CCA4F0C37C7F800C013
:101E10003F1D3F68DFF824C307EA0C07DFF814C34F
:101E20000CF1100CCCF80070D0E9007C47EA0C07EC
:101E3000D0F808C047EA0C07D0F80CC047EA0C07F6
:101E4000DFF8F0C20CF1100CDCF800C047EA0C0718
:101E5000DFF8E0C20CF1100CCCF80070476B3D02CB
:101E6000078E3E04B34F24373F6807F07F47DFF803
:101E7000C4C20CF1240CCCF8007046EA0507D0F877
:101E800038C047EA0C07DFF8ACC20CF1240CDCF8D0
:101E900000C047EA0C07DFF89CC20CF1240CCCF818
:101EA0000070F0BD0021016041608160C16001618E
:101EB00041618161C161016241628162C16201630C
:101EC00041638163704740B19A491031096841F01C
:101ED0000101984A1032116007E0964910310968F3
:101EE00021F00101934A10321160704740B19149CD
:101EF0001031096841F480318E4A1032116007E0D8
:101F00008C491031096821F480318A4A10321160FD
:101F100070470EB5874910310968884A1140854AD3
:101F20001032116011460968C1F302110091114687
:101F30000968C1F30221019111460968C1F3023118
:101F400002919DE80E0080E80E000EBD02210160A6
:101F50004160816070477749383108607047754942
:101F60001C31086070472DE9F0410024002500264F
:101F7000002200270023B1F804C04FEA0C44D0F837
:101F800004C00CF4704CC0F804C0D1F800C04CEA96
:101F9000040CC0F804C0B1F80CC04FEA0C45D0F8EE
:101FA00008C00CF4704CC0F808C0D1F808C04CEA66
:101FB000050CC0F808C0D0F810C02CF0070CC0F811
:101FC00010C0D1F810C0C0F810C0D1F81CC04FEA42
:101FD0000C26B1F820C04FEA0C4291F824C04FEA19
:101FE0000C67D0F818C09C46C0F818C0D1F818C0CB
:101FF0004CEA060C4CEA020C4CEA070CC0F818C07C
:10200000D0F814C02CF0FF0CC0F814C0D1F814C0E4
:10201000C0F814C0D0F81CC040F207782CEA080CB5
:10202000C0F81CC0D1E90AC84CEA080CC0F81CC0B2
:10203000D0F828C09C46C0F828C0D1F830C0C0F8FD
:1020400028C0B1F838C04FEA0C43D0F82CC00CF0CF
:10205000E02CC0F82CC0D1F834C04CEA030CC0F816
:102060002CC0D0F830C06FF30A0CC0F830C0D1F8E3
:102070003CC0C0F830C0BDE8F08100210160416083
:102080008160C1600161FF21416100218161C16105
:10209000016241624FF4C06181620721C162002187
:1020A000016341638163C163704721B1026842F0FB
:1020B0000102026003E0026822F001020260704740
:1020C0000CB51C493C31096800211A4A3C321160A8
:1020D00011460968090C00911146096889B20191FD
:1020E000DDE90012C0E900120CBD00210160416071
:1020F000704701460F4A403212680A400AB1012077
:1021000000E00020704770B500230024C2B10568CC
:1021100045F0020505604D682B020D892C04C56849
:1021200005F07F45C560C6680D681D4325432E43F5
:10213000C66009E00868014000F800F08F88FE0FD3
:10214000056825F0020505600125934E356070BDD8
:102150000021016041608160704721B1026842F056
:102160001002026003E0026822F010020260012205
:10217000894B1A60704730B50022002300248D6817
:102180002A028D892B040D782C064D6825431543B2
:102190001D43056430BD0021016041608160C16064
:1021A00070472DE9F0410B461446D0F8048008F43E
:1021B0007048C0F80480D0F8088008F47048C0F86F
:1021C0000880DFF8D481A8F11808D8F800104FF083
:1021D000010808EB114808EB03051FFA81F808F124
:1021E000010808EB0406016909B904220EE001297F
:1021F00001D103220AE0042905D0022903D00329D2
:1022000001D0072901D1022200E00122C16AC1F3F5
:102210000C08A8F10308B8FBF2F8A844A8F1010CD7
:10222000016BC1F30A08B044A8F1010745EA0C4864
:10223000C0F8048046EA0748C0F80880BDE8F0818D
:1022400041617047816270472DE9F0430B461446A7
:10225000016909B904220EE0012901D103220AE033
:10226000042905D0022903D0032901D0072901D16F
:10227000022200E001224168C1F30C0503EB0508CE
:10228000A8F101078168C1F30C0604EB0608A8F168
:10229000010C45EA0748C0F8048046EA0C48C0F83B
:1022A000088003FB02F808F1030803FB02F948EA7F
:1022B0000948C0F82C800463BDE8F08330B50346BC
:1022C000186908B904220EE0012801D103220AE0AE
:1022D000042805D0022803D0032801D0072801D103
:1022E000022200E00122DC6A200CB0FBF2F009B906
:1022F00004220EE0012901D103220AE0042905D0BD
:10230000022903D0032901D0072901D1022200E0CC
:10231000012200FB02F4E41C00FB02F544EA054440
:10232000DC62196130BD39B11B4A103212680243B8
:10233000194B10331A6006E0174A103212688243B4
:10234000154B10331A60704701460020124A1432B0
:1023500012680A400AB1012000E0002070470E49CF
:10236000183108607047014600200B4A1432126889
:102370000A400AB1012000E00020074A103212682A
:102380000A4012B108B1012000E000207047024964
:10239000183108607047000024680140F648006862
:1023A00040F00100F44908600020F349083108605A
:1023B000F1480068F1490840EF490860F048091DFC
:1023C0000860F048EC4984310860ED481038091D78
:1023D0000860E948006820F48020E7490860002090
:1023E000E5490C310860E4498C31086070470021F0
:1023F000E14A921C117011460870704710B50146F1
:102400000022002300204A11012A02D1DA4C23685D
:1024100008E0022A03D1D84C7034236802E0D64C7D
:102420007434236801F01F02012494401C400CB155
:10243000012000E0002010BD38B5002000900024ED
:10244000002500BF3120FFF7D9FF05460098401C4A
:1024500000900098B0F5A04F01D0002DF2D03120AF
:10246000FFF7CCFF08B1012400E00024204638BD6E
:1024700001460020C04A106820F0F80040EAC10080
:1024800010607047C049086070470021BA4A703236
:1024900011701170012802D004280AD104E0012132
:1024A000B54A7032117005E00521B34A70321170DF
:1024B00000E000BF00BF7047B4490860704770B5C6
:1024C000049C41EA82150126C6EB530645EA0645FF
:1024D000054345EA0465A84E361D356070BDAA491E
:1024E0000866704710B5830143EA016343EA02734B
:1024F000A14C8434236010BDA3498866704710B591
:10250000830143EA016343EA02739B4C88342360EE
:1025100010BD9D49086770479B49C86470470246D3
:102520000020954B0833186820F0EC6042EA010364
:102530001843914B083318607047024600208E4BB9
:102540000833186820F0784042EA010318438A4BA8
:1025500008331860704701460020874A0832106827
:1025600020F003000843106070478348083000687B
:1025700000F00C007047014600207F4A08321068C6
:1025800020F0F000084310607047014600207A4AAE
:102590000832106820F4E05008431060704701468C
:1025A0000020754A0832106820F4604040EAC100FB
:1025B00010607047F0B5002100220024022500269B
:1025C00002236D4F08373F6807F00C0121B1042941
:1025D00005D0082937D105E06D4F076036E06D4F13
:1025E000076033E0644F3F1D3F68C7F38056624F7A
:1025F0003F1D3F6807F03F036EB1664FB7FBF3F72F
:10260000DFF874C10CF1040CDCF800C0CCF3881CBA
:1026100007FB0CF40CE05E4FB7FBF3F7DFF858C193
:102620000CF1040CDCF800C0CCF3881C07FB0CF4A4
:10263000514F3F1D3F68C7F301477F1C7D00B4FB2E
:10264000F5F7076002E0524F076000BF00BF4A4F36
:1026500008373F6807F0F00109094F4F7A5C0768B7
:10266000D7404760444F08373F6807F4E051890A74
:10267000494F7A5C4768D74087603F4F08373F68CB
:1026800007F46041490B444F7A5C4768D740C76004
:10269000F0BD002100F44072B2F5407F0AD1364A05
:1026A0000832116821F4F8113C4A02401143324AC1
:1026B00008321160304A70321268C0F30B031A43BB
:1026C0002D4B70331A6070473049443908607047A9
:1026D0002E4940390860704731490860704701460B
:1026E0000020254A8C32106820F01F004A1E10433B
:1026F000214A8C3210607047014600201E4A8C32FD
:10270000106820F4F8504A1E40EA02201A4A8C321F
:102710001060704701460020174A8C32106820F480
:10272000401008431060704701460020124A8C3266
:10273000106820F4400008431060704701460020F4
:102740000D4A8C32106820F4403008431060704706
:1027500014490860704739B1074A303212680243A1
:10276000054B30331A6006E0034A30321268824368
:10277000014B30331A60704700380240FFFFF6EA21
:10278000103000240030002000004742800E4742F5
:102790000024F40000127A0014000020FFFCFF0F58
:1027A0005C014742E011474229B1894A126802435D
:1027B000874B1A6004E0864A12688243844B1A6091
:1027C000704739B1824A121D12680243804B1B1DAB
:1027D0001A6006E07E4A121D126882437C4B1B1D64
:1027E0001A60704739B17A4A0C3212680243784B4A
:1027F0000C331A6006E0764A0C3212688243744B3E
:102800000C331A60704739B1714A103212680243B2
:102810006F4B10331A6006E06D4A10321268824323
:102820006B4B10331A60704739B1694A243A126809
:102830000243674B243B1A6006E0654A243A12685B
:102840008243634B243B1A60704739B1604A203A97
:10285000126802435E4B203B1A6006E05C4A203A55
:10286000126882435A4B203B1A60704739B1584A6C
:102870001C3A12680243564B1C3B1A6006E0544A4D
:102880001C3A12688243524B1C3B1A60704739B1A4
:102890004F4A143A126802434D4B143B1A6006E04B
:1028A0004B4A143A12688243494B143B1A607047F2
:1028B00039B1474A103A12680243454B103B1A603F
:1028C00006E0434A103A12688243414B103B1A60BB
:1028D000704739B13E4A1C32126802433C4B1C33EC
:1028E0001A6006E03A4A1C3212688243384B1C33A5
:1028F0001A60704739B1364A203212680243344BAD
:1029000020331A6006E0324A203212688243304B8C
:1029100020331A60704739B12D4A243212680243BD
:102920002B4B24331A6006E0294A24321268824372
:10293000274B24331A60704739B1254A2C3212686C
:102940000243234B2C331A6006E0214A2C321268D2
:1029500082431F4B2C331A60704739B11C4A303206
:10296000126802431A4B30331A6006E0184A3032BC
:1029700012688243164B30331A60704739B1144ADB
:10298000273A12780243124B273B1A7006E0104A8E
:10299000273A127882430E4B273B1A7070470C4837
:1029A0004030006840F0807009494031086070474D
:1029B00001460020064A283A12680A400AB101205E
:1029C00000E0002070470249263908707047000077
:1029D0003438024010B50446F648844208D101213B
:1029E0008014FFF765FF0021A014FFF761FF3CE0B2
:1029F000F148844208D101210014FFF748FF00216B
:102A00002014FFF744FF30E0EC48844208D1012154
:102A1000C013FFF73CFF0021E013FFF738FF24E06D
:102A2000E748844208D101214014FFF741FF00210B
:102A30006014FFF73DFF18E0E248844209D101210C
:102A40000805FFF735FF00214FF48010FFF730FF36
:102A50000BE0DD48844208D101214805FFF728FF3B
:102A600000214FF40010FFF723FF10BD10B5002226
:102A7000028802F441520B884C8823438C882343FC
:102A8000CC8823430C8923434C8923438C892343DB
:102A9000CC8923431A430280838B4FF2FF74234077
:102AA00083830B8A038210BD2DE9F04F002502239A
:102AB0000024012700220026944690469146B0F853
:102AC0001CA04FF2400B0AEA0B0AA0F81CA04FF022
:102AD000020AA0F820A0858BD1F808A0BAF1020F55
:102AE00001D100BF6CE0B1F804A0BAF1000F01D130
:102AF000012700E00227DFF8D4A2DAF800A00AF4E8
:102B0000000ABAF1000F09D0DFF8C0A2DAF800A07D
:102B10002AF4000ADFF8B4B2CBF800A0DFF8ACA2C8
:102B20000AF17C0ADAF800A0CAF38818DFF89CA240
:102B30000AF17C0ADAF800A0CAF30279DFF88CA265
:102B4000AAF1040ADAF800A00AF03F0CDFF880A22C
:102B5000BAFBFCFA0AFB08FABAFBF9F6B1F806A0D0
:102B6000BAF5007F0ED14FEA162A0AEB8A0A4FEA1D
:102B70004A0AD1F808B0BAFBFBFA0AF1050A1FFAB3
:102B80008AF20FE04FEA471AB6FBFAFA0AEB8A0A12
:102B90004FEA4A0AD1F808B0BAFBFBFA0AF1050A73
:102BA0001FFA8AF24FF00A0AB2FBFAF202F00104AD
:102BB000A2EB040ACAF34F034FF6FF7A0AEA042491
:102BC000022B01DBFF2B01DD02230024B1F806A05C
:102BD0004AEA040A4AEA030AA0F820A0B1F804A0CD
:102BE000B1F80CB04AEA0B0AB1F802B04AEA0B0A93
:102BF000B1F800B04AEA0B0A4AF4006A4AEA05054D
:102C00008583BDE8F08F0021018041808180C180F3
:102C1000018141818181C1810721018270470021A9
:102C2000018041808180C1800221816000218181F9
:102C3000704721B1028842F04002028004E002881D
:102C40004FF6BF731A400280704721B1828B42F465
:102C50008062828304E0828B4FF6FF331A408283C6
:102C6000704702884FF2FF731A40028002880A43BD
:102C700002807047B1F5804F04D1028842F480424F
:102C8000028004E002884BF6FF731A40028070470E
:102C90004FF6FF62914204D0028842F480720280B3
:102CA00004E002884FF6FF631A400280704721B1AA
:102CB000828842F00402828004E082884FF6FB732F
:102CC0001A408280704721B1828842F010028280CF
:102CD00004E082884FF6EF731A408280704730B567
:102CE00000220023848B4FF240052C408483022471
:102CF0000484828B0C88B4F5007F01D00C8814B951
:102D00004FF4807308E00C88B4F5407F03D00C8842
:102D1000B4F5807F00D100238C888D892C434D88A9
:102D20002C431C4344F400642243828330BD01469B
:102D3000888970478181704721B1028842F400522E
:102D4000028004E002884DF6FF731A40028070474B
:102D5000018841F48051018070470246002001291A
:102D600001D0108B00E0908A70470146088A7047B6
:102D70001AB183880B43838002E083888B4383806E
:102D8000704730B5002400230C110125A540ABB2DB
:102D90001AB185881D43858002E085889D43858022
:102DA00030BD0246002013890B400BB1012000E02A
:102DB000002070470030014000380040003C0040D7
:102DC00000340140005001400054014008380240E6
:102DD00000127A00CA4302817047F0B50246002013
:102DE00000240023002501F00F070126BE40B4B2E5
:102DF0000B1101269E40B3B2968806EA0305168998
:102E0000264016B10DB1012000E00020F0BD10B544
:102E1000002201F00F040123A3409AB2D34303819F
:102E200010BD000010B501218803FFF741FD00210E
:102E30004FF48040FFF73CFD10BD1C49086070470F
:102E40001B490862704730B500228B071C0F0F2307
:102E500003FA04F2154B08338C1053F824309343D3
:102E6000124C08348D1044F8253023468C1053F84A
:102E700024308C07240F00FA04F423430B4C08344D
:102E80008D1044F8253030BD0949DC3108607047A9
:102E9000084908607047002004492031096801F49E
:102EA000807109B1012000E0002070470038014026
:102EB000000027420004274210B50446FA48844225
:102EC00008D101211020FFF7F3FC00211020FFF7AB
:102ED000EFFC57E0F548844209D101214804FFF78F
:102EE000D6FC00214FF40030FFF7D1FC4AE0F04857
:102EF000844209D101218804FFF7C9FC00214FF465
:102F00008020FFF7C4FC3DE0EA48844209D101215A
:102F1000C804FFF7BCFC00214FF40020FFF7B7FC0A
:102F200030E0E548844209D101210805FFF7AFFCF4
:102F300000214FF48010FFF7AAFC23E0DF48844211
:102F400008D101212020FFF7B3FC00212020FFF74A
:102F5000AFFC17E0DA48844209D101218807FFF766
:102F600096FC00214FF08040FFF791FC0AE0D54825
:102F7000844207D101214005FFF789FC002160054B
:102F8000FFF785FC10BD2DE9FF4705460E460024DE
:102F9000A14600BFA046B08900B100BF2C8A24F42E
:102FA0004054F08804432C82AC8941F20C60844385
:102FB000B08831890843718908430443AC81AC8AE5
:102FC00024F44074B0890443AC826846FFF7F2FAF7
:102FD000B548854202D0B948854202D1DDF80C904F
:102FE00001E0DDF80890A88900F4004040B109EB49
:102FF000C90000EB091031684900B0FBF1F707E0A8
:1030000009EBC90000EB091031688900B0FBF1F74A
:103010006420B7FBF0F004012009642101FB107863
:10302000A88900F4004040B1322000EBC800B0FB9A
:10303000F1F000F00700044308E0322000EB081034
:103040006421B0FBF1F000F00F0004432C81BDE8D7
:10305000FF874FF41651016000218180C1800181FA
:103060000C21418100218181704710B5024600206A
:10307000108A20F470600B884C8823438C8823438B
:10308000CC8823431843108210BD00210180418069
:103090008180C180704721B1828942F400528281CF
:1030A00004E082894DF6FF731A4082817047028BDB
:1030B00002F47F420283028B0A430283704721B1EC
:1030C000828942F40042828103E08289C2F30E02C7
:1030D0008281704721B1828A42F40062828204E0D8
:1030E000828A4FF2FF731A4082827047C1F308024E
:1030F0008280704701468888C0F308007047028AC2
:103100004FF6F0731A400282028A0A430282704725
:1031100021B1828942F00202828104E082894FF665
:10312000FD731A408281704782894FF2FF731A4003
:10313000828182890A4382817047028A4FF6DF7357
:103140001A400282028A0A430282704721B1028A2F
:1031500042F48042028204E0028A4BF6FF731A4076
:1031600002827047818941F001018181704721B15C
:10317000828A42F00802828204E0828A4FF6F77364
:103180001A4082827047028BD2B20283028B42EADB
:1031900001220283704721B1828A42F0200282829A
:1031A00004E0828A4FF6DF731A408282704721B1B1
:1031B000828A42F01002828204E0828A4FF6EF7324
:1031C0001A4082827047828A4FF6FB731A408282CD
:1031D000828A0A438282704721B1828A42F00202C7
:1031E000828204E0828A4FF6FD731A408282704721
:1031F0001AB1838A0B43838202E0838A8B438382E2
:103200007047F0B50346002400260025002040F654
:103210006A17B94200D100BF1846C1F3421401F049
:103220001F06012707FA06F5012C01D10C3004E036
:10323000022C01D1103000E014301AB107682F437E
:10324000076002E00768AF430760F0BD0246002058
:10325000B1F5007F00D100BF13880B400BB10120F6
:1032600000E00020704701F40072B2F5007F00D149
:1032700000BFCA430280704770B502460024002395
:103280000025002040F66A16B14200D100BFC1F30C
:10329000421501F01F03012606FA03F3012D13D195
:1032A0009689334017E000000010014000440040C0
:1032B00000480040004C0040005000400014014015
:1032C00000780040007C0040022D02D1168A334075
:1032D00001E0968A33400C12012606FA04F416889F
:1032E000344013B10CB1012000E0002070BD10B5D6
:1032F0000022002340F66A14A14200D100BF0A1246
:1033000001249440A3B2DC43048010BD3249014340
:10331000324A1160704770B5002100230F22C47833
:103320001CB32E4C246804F4E064C4F5E064C4F3D8
:103330000721C1F10404E3B20A4144789C40E1B2A0
:103340008478144021430C07210E254C05786155E3
:10335000047804F01F050124AC4005786D11AD0020
:1033600005F1E025C5F8004109E0047804F01F05E7
:103370000124AC401B4D0678761145F8264070BDFF
:10338000194A0A400243154B1B1F1A60704739B196
:10339000124A121D12680243104B1B1D1A6006E0F0
:1033A0000E4A121D126882430C4B1B1D1A60704797
:1033B000042808D14FF0E021096941F004014FF0E1
:1033C000E022116107E04FF0E021096921F00401DA
:1033D0004FF0E022116170470000FA050CED00E0AB
:1033E00000E400E080E100E080FFFF1F70B50446CC
:1033F000B4B10025204602F0EDFDC6B200BF0CE0DE
:10340000615D4F48FFF772FE00BF4D480088C0F372
:1034100080100028F9D0681CC5B2B542F0DB00BFAF
:1034200070BD70B504460E4694B1002500BF0CE097
:1034300000BF43480088C0F340100028F9D040483E
:10344000FFF758FE6055681CC5B2B542F0DB00BFFF
:1034500070BD00B587B005A8FEF7B4F901A8FFF765
:10346000F8FD01218804FFF7BDF901210220FFF7D3
:10347000B9F907220A213348FEF7E7F907220B21A1
:103480003048FEF7E2F94FF4165001900020ADF8F5
:1034900010000C20ADF80E000020ADF80C00ADF8C7
:1034A0000A00ADF8080001A92548FFF76CFD0121CD
:1034B0002348FFF7F0FD07B000BD9AB022A528A66B
:1034C0002BA70FF2BC080FF2C809642101A802F073
:1034D000A0FD01F004FAFFF7BCFF00BF2846FFF78C
:1034E00085FF012101A8FFF79CFF002001F04DFBA3
:1034F0009DF80440202C0CDB7E2C0ADC3946002091
:1035000001F0AFFB01A8FFF771FF4846FFF76EFF20
:10351000E4E74146002001F0A4FB3046FFF766FFD8
:103520004846FFF763FFD9E710B501F0D8F901F07D
:103530002FFA0120FEF7C7FC012001F075FA10BD3B
:103540000048004000040240496E70757420796F95
:103550007572206368617261637465723A2000005D
:10356000446F6E277420737570706F727400000062
:1035700056697369626C65206368617200000000BF
:10358000496E76697369626C6520636861720000D8
:103590000D0A00001CB50446C54951F8240001215C
:1035A000FFF7D9F8C34830F81400009001208DF8D7
:1035B000040000208DF8060001208DF8070002208D
:1035C0008DF80500BC4951F824006946FEF7B2F8B1
:1035D0001CBDB84931F81010B74A52F820201183A9
:1035E0007047B44931F81010B34A52F82020518383
:1035F0007047B14951F820104969AE4A32F810209D
:103600005140AD4A52F820205161704730B585B025
:1036100004460D46A94951F824000121FFF79BF803
:1036200001218803FFF7EFF800208DF81000022039
:103630008DF81300A24830F814000390A14951F806
:10364000240003A9FEF776F8012D24D19E4A115DCE
:103650009E4A105DFFF7F7FB9D4830F8140001907B
:1036600000208DF8080008208DF8090001208DF851
:103670000A0001A8FDF7E8FA9648005D8DF8000001
:103680000F208DF801008DF8020001208DF8030055
:103690006846FFF740FE05B030BD10B50446884AC5
:1036A00032F81410874A52F82400FEF7A5F810BD2E
:1036B0001CB500218848FEF7A6F98748FEF7FEF8FA
:1036C00000214FF40000FFF78DF84FF48070009058
:1036D00000208DF804008DF8070069467F48FEF74A
:1036E00029F84FF40070009069467D48FEF722F8F3
:1036F0000F207C490870002048708870C870084608
:10370000FFF709FE0D207749087000204870887087
:103710000846FFF700FE00217348FCF7B5FF0021C3
:1037200071483038FCF7B0FF6F48FCF7D1FE6E48A7
:103730003038FCF7CDFE1CBD1CB50121C805FFF7D4
:1037400051F801210520FFF706F801218803FFF752
:103750005AF80121C805FFF79AF800214FF400003C
:10376000FFF795F84FF48070009002208DF8040068
:103770008DF8050001208DF8060000208DF8070067
:1037800069465648FDF7D6FF4FF400700090694631
:103790005348FDF7CFFF042208215048FEF755F8A3
:1037A000042209214E48FEF750F80F204D490870B9
:1037B0000020487088700120C8700846FFF7ABFDF4
:1037C0000D20484908700020487088700846FFF7AF
:1037D000A2FD01214805FEF7BEFF44494248FCF71F
:1037E000CCFF00214048FCF74FFF3F48FCF770FE3C
:1037F0004FF0C0603E4908603748103048600020F4
:1038000088604020C8604FF6FF7008610020486162
:103810004FF4806088610020C861086248624FF4FC
:10382000403088620420C862032008630020486397
:1038300088632D48FCF7EEFE2E492B483038FCF704
:103840009CFF002128483038FCF71EFF26483038FE
:10385000FCF73EFE264924483038FCF7DBFE012207
:1038600010212148FCF79DFF012210211E4830380D
:10387000FCF797FF1CBD70B504460D46164656B9B9
:103880001B48846040201A49C860084605611648F4
:10389000FCF7C0FE0AE01648846000201449C860A6
:1038A0000846056110483038FCF7B4FE70BD0000D2
:1038B000E0600008DC60000824000020EC600008E4
:1038C000E86000082C000020F3600008F2600008A7
:1038D000F0600008F4600008005C00400000024056
:1038E0000008024030000020706002403D000020CF
:1038F0007800002000003D1010B5FFF7D9FE10BD84
:103900001FB5FFF719FFFE48008800F00100D0B98D
:103910000020ADF804004BF6FF70ADF80600002063
:10392000ADF808004FF48060ADF80A000001ADF872
:103930000C00F44800906946F148FDF7E8FF0121CA
:10394000EF48FEF760F80121ED48FEF74BF9A020A3
:10395000ED4908801FBD00BFFEE770B506460D4665
:103960001446EA4804604FF42040E949086007E043
:10397000E7490868411EE64A116008B9FFF7EBFF06
:103980004FF40031DE48FEF77BF90028F0D1012129
:10399000DB48FEF75BF84FF48050DD49086007E034
:1039A000DB490868411EDA4A116008B9FFF7D3FF06
:1039B000D849D348FEF742F90028F1D0D248008810
:1039C000C1B20022CE48FEF759F84FF48050D049DA
:1039D000086007E0CE490868411ECD4A116008B969
:1039E000FFF7B9FFCC49C648FEF728F90028F1D007
:1039F000290AC348FEF7C6F84FF48050C44908604E
:103A000007E0C3490868411EC14A116008B9FFF7C1
:103A1000A2FFC149891EBA48FEF710F90028F0D06C
:103A2000E9B2B748FEF7AEF84FF48050B8490860E5
:103A300007E0B7490868411EB54A116008B9FFF7A9
:103A40008AFFB649AE48FEF71BF90028F1D00121E4
:103A5000AB48FDF7FBFF4FF48050AD49086007E02D
:103A6000AB490868411EAA4A116008B9FFF773FF05
:103A7000A849A348FEF7E2F80028F1D0A248008840
:103A8000C1B201229E48FDF7F9FF2088022851DAD1
:103A90004FF480509E49086007E09D490868411E28
:103AA0009B4A116008B9FFF756FF9C49891E94484C
:103AB000FEF7E6F80028F0D000219148FDF7E6FF78
:103AC0008F481830008801218D48FDF7CBFF4FF457
:103AD00080508F49086007E08D490868411E8C4A74
:103AE000116008B9FFF737FF8C493C318448FEF775
:103AF000C7F80028F0D08248FEF746F830702088DA
:103B0000401E20804FF480508149086007E08049C2
:103B10000868411E7E4A116008B9FFF71CFF78480B
:103B2000008800F400700028F1D101217448FDF7ED
:103B3000ADFF20E04FF480507549086007E07449FC
:103B40000868411E724A116008B9FFF704FF714905
:103B5000491C6B48FEF772F80028F0D0218801223A
:103B60003046FFF788FE01216548FEF747F801213E
:103B70006B48FCF789FD002070BD70B506460C4609
:103B80001546684805604FF420406149086007E029
:103B90005F490868411E5E4A116008B9FFF7DBFE05
:103BA0004FF400315648FEF76BF80028F0D10121A0
:103BB0005348FDF74BFF4FF480505549086007E02C
:103BC00053490868411E524A116008B9FFF7C3FE05
:103BD00050494B48FEF732F80028F1D04FF480509E
:103BE0004B49086048480088C1B200224448FDF7AC
:103BF00045FF4FF480504649086007E04449086893
:103C0000411E434A116008B9FFF7A5FE42493C48EE
:103C1000FEF714F80028F1D0210A3948FDF7B2FF69
:103C20004FF480503A49086007E039490868411E5E
:103C3000374A116008B9FFF78EFE3749891E3048B0
:103C4000FDF7FCFF0028F0D0E1B22D48FDF79AFF08
:103C50004FF480502E49086007E02D490868411E46
:103C60002B4A116008B9FFF776FE2B49891E2448BC
:103C7000FDF7E4FF0028F0D0297800223046FFF756
:103C8000FAFD012126483030FCF7FEFC002070BD13
:103C90001CB50020019000904FF420401C490860A2
:103CA00007E01B490868411E194A116008B9FFF76F
:103CB00052FE4FF400311248FDF7E2FF0028F0D128
:103CC00065E001210E48FDF7C1FE4FF48050104918
:103CD000086007E00E490868411E0D4A116008B9E6
:103CE000FFF739FE0B490648FDF7A8FF0028F1D081
:103CF00005480088C1B200220148FDF7BFFE13E06D
:103D0000005C0040A0860100340000203C00002040
:103D100038000020010003008200070004000010AA
:103D200040600240400000204FF42040EA49086013
:103D300000BFEA4800880190E7490868411EE64A4A
:103D4000116008B9FFF707FEBDF8040040F2024118
:103D500008400028EDD0BDF8040000F0020048B192
:103D6000DE48001D00880121DC481438FDF77AFE8A
:103D700000201CBDDA49D9481438FDF7ABFF009884
:103D8000411C0091B0F5967F01D1FFF7E4FD98E763
:103D90002DE9F04780460E4614464FF000090027F3
:103DA0000025AA463046F11706EB91718910A6EB63
:103DB00081011FFA81FACAF1040085B22046E11799
:103DC00004EB9171C1F38F09E11704EB9171891034
:103DD000A4EB81018FB2BAF1000F64D1B9F1000FE9
:103DE0001BD1C0490F700A4631464046FFF7C5FE59
:103DF0004FF42040B849086008E0B7490868411E00
:103E0000B54A116008B9FFF7A6FD00BFB5480078B4
:103E10000028F2DCFFF73CFF12E11FE00420B1496B
:103E200008700A4631464046FFF7A7FE4FF420408F
:103E3000A949086008E0A8490868411EA64A11601F
:103E400008B9FFF788FD00BFA64800780028F2DC1B
:103E5000FFF71EFF301D86B208F104085FEA090073
:103E6000A9F101011FFA81F9D8D1002FD4D09D49C1
:103E70000F700A4631464046FFF77FFE4FF4204060
:103E80009549086008E094490868411E924A11600B
:103E900008B9FFF760FD00BF924800780028F2DC07
:103EA000FFF7F6FECCE0B9F1000F57D1AC4239DD97
:103EB0008C490D700A4631464046FFF75EFE4FF4CE
:103EC00020408549086008E083490868411E824A0D
:103ED000116008B9FFF73FFD00BF82480078002855
:103EE000F2DCFFF7D5FE601B7E490870721991B2B3
:103EF00008EB05007B4AFFF740FE4FF4204076496F
:103F0000086008E074490868411E734A116008B9E6
:103F1000FFF721FD00BF734800780028F2DCFFF7AF
:103F2000B7FE8DE06F490F700A4631464046FFF7F5
:103F300024FE4FF420406849086008E0664908689C
:103F4000411E654A116008B9FFF705FD00BF6548CD
:103F500000780028F2DCFFF79BFE71E0601B84B262
:103F60002046E11704EB91714FEAA109E11704EB38
:103F700091718910A4EB81018FB2EDB159490D7097
:103F80000A4631464046FFF7F8FD4FF420405249BB
:103F9000086008E050490868411E4F4A116008B99E
:103FA000FFF7D9FC00BF4F4800780028F2DCFFF78C
:103FB0006FFE701986B2A8441FE0042049490870BA
:103FC0000A4631464046FFF7D8FD4FF420404249AB
:103FD000086008E040490868411E3F4A116008B97E
:103FE000FFF7B9FC00BF3F4800780028F2DCFFF77C
:103FF0004FFE301D86B208F104085FEA0900A9F1FE
:1040000001011FFA81F9D8D1D7B136490F700A469C
:1040100031464046FFF7B1FD4FF420402E4908607D
:1040200008E02D490868411E2B4A116008B9FFF7C6
:1040300092FC00BF2B4800780028F2DCFFF728FE36
:10404000BDE8F08710B528492848FCF77AFB20B373
:1040500000212648FCF718FB23492448FCF78DFB78
:104060004FF420401C49086007E01B490868411EC6
:10407000194A116008B9FFF76EFC1D49174814383A
:10408000FDF7FEFD0028F0D0012114481438FDF79B
:10409000E9FC002017490968087010BD10B54FF001
:1040A000815112483038FCF74CFB98B101210B4884
:1040B0001438FDF7D7FC00210C483038FCF7E4FA3F
:1040C0004FF0815109483038FCF757FB00200A496E
:1040D0000968088010BD000038000020145C004012
:1040E0000004001044000020200000207060024006
:1040F00004000010400000203C00002010B50446E1
:1041000024B90421F748FDF793FB03E00421F548A7
:10411000FDF78CFB10BD70B504460D4616463246C1
:1041200029462046FDF786FB70BD10B504460022E7
:104130004FF40051EC48FFF7EEFF0020FFF7DEFFE1
:104140002146EA48FEF7F6FD00BF0221E748FEF7E8
:1041500028FE0028F9D000BF8021E448FEF721FEA8
:104160000028F9D10120FFF7C9FF10BD10B52820A4
:10417000FFF7DBFF10BD1CB5FFF7F8FF0021DB48A0
:10418000FEF757FDD948FEF725FC00214FF48010BB
:10419000FEF739FB0420009000208DF804008DF814
:1041A00007006946CF48FDF7C5FA802000906946B0
:1041B000CF48FDF7BFFA4FF4807000906946CC48B5
:1041C000FDF7B8FA4FF4007000906946C848FDF753
:1041D000B1FA00220321C748FDF737FB0022042172
:1041E000C448FDF732FB00220621C248FDF72DFB33
:1041F00000220B21BF48FDF728FB00220C21BD48FF
:10420000FDF723FB41F65800009002208DF80400D2
:104210008DF8050000208DF806008DF8070069462E
:10422000B448FDF787FA00221146B348FDF70DFBAD
:1042300000220121B048FDF708FB00220821AE480A
:10424000FDF703FB00220921AB48FDF7FEFA00222F
:104250000A21A948FDF7F9FA00220B21A648FDF72B
:10426000F4FA40F60370009002208DF804008DF8F7
:10427000050000208DF806008DF8070069469E486D
:10428000FDF758FA002206219648FDF7DEFA0022D3
:1042900007219448FDF7D9FA00220A219148FDF739
:1042A000D4FA4FF49860009002208DF804008DF845
:1042B000050000208DF806008DF807006946894842
:1042C000FDF738FA002203218748FDF7BEFA0022E5
:1042D00006218548FDF7B9FA4820009002208DF8A4
:1042E00004008DF8050000208DF806008DF8070009
:1042F00069467D48FDF71EFA00220A217C48FDF739
:10430000A4FA4FF48060009002208DF804008DF82C
:10431000050000208DF806008DF8070069467448F6
:10432000FDF708FA002206217448FDF78EFA0022F4
:1043300007217248FDF789FA00220A216F48FDF72C
:1043400084FA00220B216D48FDF77FFA00220C2130
:104350006A48FDF77AFA4FF4E650009002208DF893
:1043600004008DF8050000208DF806008DF8070088
:1043700069466248FDF7DEF91CBD1CB501216F20BE
:10438000FEF7E9F90E2203215A48FDF75EFA0E22E4
:1043900004215848FDF759FA0E2206215548FDF729
:1043A00054FA0E220B215348FDF74FFA0E220C212E
:1043B0005048FDF74AFA41F65800009002208DF867
:1043C00005008DF8040000208DF806008DF8070028
:1043D00069464848FDF7AEF9092200214648FDF735
:1043E00034FA092201214448FDF72FFA0E22082150
:1043F0004148FDF72AFA0E2209213F48FDF725FA28
:104400000E220A213C48FDF720FA0E220B213A48E1
:10441000FDF71BFA40F60370009069463648FDF739
:1044200089F90E2206212F48FDF70FFA0E220721E7
:104430002C48FDF70AFA0E220A212A48FDF705FA50
:104440004FF49860009069462648FDF773F90E22F4
:1044500003212548FDF7F9F90E2206212248FDF730
:10446000F4F94820009069461F48FDF763F90E22D1
:104470000A211F48FDF7E9F94FF480600090694672
:104480001B48FDF757F90E2206211C48FDF7DDF900
:104490000E2207211948FDF7D8F909220A211748E9
:1044A000FDF7D3F90E220B211448FDF7CEF90922AE
:1044B0000C211248FDF7C9F94FF4E6500090694607
:1044C0000E48FDF737F91CBD01B581B00020009002
:1044D0000198009002E00098401E0090009800288B
:1044E000F9D10CBD00080240000C02400050014010
:1044F0000014024000000240000402400018024084
:1045000010B5044601225103FE48FFF704FE0020C7
:10451000FFF7F4FD2146FC48FEF70CFC00BF02212A
:10452000F948FEF73EFC0028F9D000BF8021F6488C
:10453000FEF737FC0028F9D10120FFF7DFFD10BDA1
:1045400010B5CA20FFF7F1FDC320FFF7D9FF0820FF
:10455000FFF7D6FF5020FFF7D3FFCF20FFF7E5FD91
:104560000020FFF7CDFFC120FFF7CAFF3020FFF783
:10457000C7FFED20FFF7D9FD6420FFF7C1FF03203F
:10458000FFF7BEFF1220FFF7BBFF8120FFF7B8FF48
:10459000E820FFF7CAFD8520FFF7B2FF0020FFF7F4
:1045A000AFFF7820FFF7ACFFCB20FFF7BEFD39202F
:1045B000FFF7A6FF2C20FFF7A3FF0020FFF7A0FFC7
:1045C0003420FFF79DFF0220FFF79AFFF720FFF747
:1045D000ACFD2020FFF794FFEA20FFF7A6FD0020A6
:1045E000FFF78EFF0020FFF78BFFB120FFF79DFD47
:1045F0000020FFF785FF1B20FFF782FFB620FFF7A3
:1046000094FD0A20FFF77CFFA220FFF779FFC0206E
:10461000FFF78BFD1020FFF773FFC120FFF785FD2B
:104620001020FFF76DFFC520FFF77FFD4520FFF746
:1046300067FF1520FFF764FFC720FFF776FD902086
:10464000FFF75EFF3620FFF770FDC820FFF758FF29
:10465000F220FFF76AFD0020FFF752FFB020FFF7BE
:1046600064FDC220FFF74CFFB620FFF75EFD0A2075
:10467000FFF746FFA720FFF743FF2720FFF740FF84
:104680000420FFF73DFF2A20FFF74FFD0020FFF732
:1046900037FF0020FFF734FF0020FFF731FFEF2046
:1046A000FFF72EFF2B20FFF740FD0020FFF728FF2C
:1046B0000020FFF725FF0120FFF722FF3F20FFF733
:1046C0001FFFF620FFF731FD0120FFF719FF002043
:1046D000FFF716FF0620FFF713FF2C20FFF725FD3D
:1046E000C820FFF7F1FE2620FFF71FFD0120FFF78E
:1046F00007FFE020FFF719FD0F20FFF701FF29203A
:10470000FFF7FEFE2420FFF7FBFE0C20FFF7F8FE6C
:104710000E20FFF7F5FE0920FFF7F2FE4E20FFF70F
:10472000EFFE7820FFF7ECFE3C20FFF7E9FE0920C2
:10473000FFF7E6FE1320FFF7E3FE0520FFF7E0FE9C
:104740001720FFF7DDFE1120FFF7DAFE0020FFF74C
:10475000D7FEE120FFF7E9FC0020FFF7D1FE16208D
:10476000FFF7CEFE1B20FFF7CBFE0420FFF7C8FEAD
:104770001120FFF7C5FE0720FFF7C2FE3120FFF72B
:10478000BFFE3320FFF7BCFE4220FFF7B9FE052035
:10479000FFF7B6FE0C20FFF7B3FE0A20FFF7B0FECE
:1047A0002820FFF7ADFE2F20FFF7AAFE0F20FFF70E
:1047B000A7FE1120FFF7B9FCC820FFF785FE2920CE
:1047C000FFF7B3FC2C20FFF7B0FC10BD00B587B09D
:1047D00001212020FDF7BFFF01210805FEF713F896
:1047E0008020009001208DF8050002208DF8040043
:1047F00000208DF8060002208DF807006946434826
:10480000FCF798FF4FF48070009069463F48FCF732
:1048100091FF4FF40070009069463C48FCF78AFF16
:10482000052207213948FDF710F8052208213748ED
:10483000FDF70BF8052209213448FDF706F8324848
:10484000FEF7C8F83048008800F0400010BB002098
:10485000ADF808004FF48270ADF80A000020ADF802
:104860000C00ADF80E00ADF810004FF40070ADF87C
:1048700012001820ADF814000020ADF81600072033
:10488000ADF8180002A92048FEF7F0F801211E48F3
:10489000FEF7CFF907B000BD1CB501210C20FDF7D4
:1048A0005AFF0420009002208DF8050001208DF8A9
:1048B000040000208DF806008DF8070069461448B2
:1048C000FCF738FF4FF40050009069460D48FCF7A4
:1048D00031FF012204210E48FFF71DFC1CBD00B56D
:1048E0008FB0FFF7D9FF0020FFF708FC0120FFF78A
:1048F00005FCFFF76BFFFFF723FE01218806FDF79C
:1049000082FF07E0000C024000500140001402400A
:10491000000802400121C805FDF71DFFFFF72DFD2E
:1049200001F0E0FA002000900190029003900C90BA
:104930000D900E9004220721C020FDF7E0FD4FF4FA
:104940000030FDF7FBFE0120FDF7E3FD00BF3D2039
:10495000FDF754FD0028FAD00920049001200590AD
:104960001D2006900320079040F20D10089040F2A1
:104970004310099040F217100A9040F247100B9034
:104980006846FDF7D2F90FB000BDFE4908607047D8
:1049900000B591B01E20019040F20D10029004204D
:1049A000039040F24310049002200590FF200690EF
:1049B00000200790089009900A904FF480600B90B7
:1049C00005200C9040F2E3100E90C01E0F904FF4A3
:1049D000A07010904FF050400D9001A9EA48FDF7EB
:1049E000C2FAEA480D904FF4C0600B9007200C907B
:1049F00001A9E5488030FDF7B6FA0120FDF7AFFACE
:104A00000121E148FDF751FB0121DF488030FDF72E
:104A10004CFB0120FDF7A3FADD48FFF7B6FF0120AC
:104A2000FDF764FA11B000BD38B94FF05041D94AD2
:104A300011600021D84A116005E0D449D54A1160BF
:104A40000121D54A11607047D44A1080D44A1180A0
:104A50007047D24A12880280D14A12880A80704771
:104A6000CE4908807047CE490880704710B504468B
:104A7000C948006820B92146C348FDF7E1FB04E0BE
:104A80002146C1488030FDF7DBFB0120FDF767FAC6
:104A900010BDBC48006870472DE9F04104460D4642
:104AA000134600BF002200BF0020C4EB04177E01A4
:104AB000284400214DE000223FE0B24F3F68BF880C
:104AC0004FF00C0C97FBFCF74FEAC70C802707FA56
:104AD0000CF7174133F811C007EA0C0727B9A94FA3
:104AE0003F68BF880C2F0DDD33F811704FF0010CBB
:104AF0000CFA02FC07EA0C078FB9A24F3F68BF8887
:104B00000C2F0CDDA64F3F88DFF888C2DCF800C010
:104B10004FF0020808FB00CC2CF806700BE09F4F0A
:104B20003F88DFF870C2DCF800C04FF0020808FBD5
:104B300000CC2CF80670401C521C924F3F68BF8876
:104B40009742BAD88F4F3F68BF88C7F1F007384403
:104B5000491C8C4F3F68FF888F42ACD8BDE8F0817C
:104B600070B505460E461446A4F12000C4B285482F
:104B70000068016883480068C088604301EB400218
:104B800031462846FFF788FF70BD30B50546002442
:104B900009E0202221462846FFF7E2FF7948006815
:104BA0008088204484B2F02C09DA76480068808836
:104BB000204480B27349096889888842E9DA30BDA7
:104BC0000146002000BF04E0724B1B6823F8101060
:104BD000401CB0F5A02FF7D3704710B50246F02067
:104BE00000FB01206B4B1B68022404FB003010BD4E
:104BF0003EB50446E0B2009004F47F40000A019004
:104C000004F47F00000C02906348006840B9012260
:104C100069465D48FDF777FA0120FDF7A0F908E045
:104C20000122694658488030FDF76DFA0120FDF7F2
:104C300096F93EBD0EB55848006840B90022694655
:104C40005148FDF760FA0120FDF789F908E00022DC
:104C500069464D488030FDF756FA0120FDF77FF98F
:104C60000EBD70B506460C4600250AE0227829469E
:104C70003046FFF775FF434800688088284485B2B6
:104C8000641CF02D14DA3F4800688088284480B204
:104C90003C4909688988884201DB012000E0002046
:104CA000217809B1012100E0002108400028DDD170
:104CB00070BD2DE9F04104460D4617461E463648A4
:104CC000006880B92A4621462F48FDF76AFA01207C
:104CD000FDF745F93A4631462B48FDF7B5FA012074
:104CE000FDF73DF911E02A46214627488030FDF7BF
:104CF00058FA0120FDF733F93A4631462248803010
:104D0000FDF7A2FA0120FDF72AF9BDE8F08110B500
:104D1000F0234FF4A07200210846FFF7CAFF10BD30
:104D20002DE9F04F8BB005460E4614461F464FF056
:104D30000008C146C246C346F02000FB0650154994
:104D40000968022202FB00181448008800F4784029
:104D50004FEAE0291148007800F01F0B0F48008847
:104D600000F4FC604FEA601AFBF786FD4FF4403018
:104D7000019002200290CDF810A0CDF80CB0CDF833
:104D800014900FE06800002084680140000005D006
:104D90004800002070000020740000206C000020FB
:104DA0006E0000200F200690CDF81C802FB9002047
:104DB0000890012009900A9404E0EF2008900994DB
:104DC00001200A9001A8FBF762FDFBF7D9FD00BFA7
:104DD0000220FBF701FF0028FAD00BB0BDE8F08FEE
:104DE0002DE9F04105460E4617461C460023224693
:104DF00031462846FFF794FFF01981B2002322467E
:104E00002846FFF78DFF01233A4631462846FFF733
:104E100087FF291988B201233A463146FFF780FF00
:104E2000BDE8F0812DE9F04303460C461546684283
:104E300000216F00C7F1020200BFFC4F3F88A3EBC7
:104E4000000C04EB01084FF0F00909FB08CCDFF877
:104E5000E083D8F8008028F81C70F44F3F8803EBFB
:104E6000000C04EB010809FB08CCDFF8C483D8F878
:104E7000008028F81C70ED4F3F8803EB000CA4EB7A
:104E8000010809FB08CCDFF8A883D8F8008028F8CF
:104E90001C70E64F3F88A3EB000CA4EB010809FB54
:104EA00008CCDFF88C83D8F8008028F81C701646F0
:104EB0008E420BDC4F1C39464FF0010C0CEB4707C0
:104EC0003A44C84202D1864200DC0026864206DD12
:104ED000471C38464FF0010C0CEB47073A440028BA
:104EE000ABDDBDE8F0832DE9F04F2DED048B83B0F1
:104EF00081468A4617469B467C4200257800C0F1D1
:104F000002069FEDCC0AB0EE408A9FEDCA0AF0EE91
:104F1000408A9FEDC80AB0EE409A00EE107AB8EED3
:104F2000C00AF0EE408A00EE10BAB8EEC00AB0EE49
:104F3000409A5F4566DD00BF88EE890AB0EE408A80
:104F400000EE105AB8EEC00AC0EE080ABCEEE00A45
:104F500010EE100A4000401C80B200EE105AB8EE6D
:104F6000C00AC0EE080ABCEEE00A029010EE100A79
:104F7000AAEB000080B209EB0401019088B2012382
:104F8000DDE90112FFF7CCFE00EE105AB8EEC00AC0
:104F9000C0EE080ABCEEE00A10EE100A4000401C09
:104FA00080B200EE105AB8EEC00AC0EE080ABCEE9D
:104FB000E00A029010EE100AAAEB000080B2A9EB02
:104FC0000401019088B20123DDE90112FFF7A8FE78
:104FD000B046A8450BDC681C0546012101EB4000EA
:104FE0000644EC4203D1A04501DC4FF00008A04587
:104FF00005DD601C0446012101EB40000644002C45
:105000009ADD68E0CBF10005002400BF89EE280A94
:10501000B0EE408A00EE104AB8EEC00AC0EE080AB0
:10502000BCEEE00A10EE100A4000401C80B200EE18
:10503000104AB8EEC00AC0EE080ABCEEE00A0290C0
:1050400010EE100AA9EB000080B201900AEB0500F7
:1050500081B20023DDE90102FFF762FE00EE104A93
:10506000B8EEC00AC0EE080ABCEEE00A10EE100A64
:105070004000401C80B200EE104AB8EEC00AC0EEFC
:10508000080ABCEEE00A029010EE100AA9EB00003C
:1050900080B20190AAEB050081B20023DDE9010294
:1050A000FFF73EFEB046A0450BDC601C0446012124
:1050B00001EB40000644E54203D1A84501DC4FF076
:1050C0000008A84505DD681C0546012101EB4000EC
:1050D0000644002D9ADD03B0BDEC048BBDE8F08FD3
:1050E0002DE9F04304460D4616461F467042002146
:1050F0004FEA460CCCF10202DFED4E1AB0EE610A27
:10510000DFED4C1AF0EE610ADFED4A1AB0EE611ADB
:1051100001EE906AF8EEE11AF0EE610A01EE907A83
:10512000F8EEE11AB0EE611ABE427DDD00BFC0EEBE
:10513000811AB0EE610A01EE901AF8EEE11A81EEE2
:10514000802AFCEEC21A11EE90CA1FFA8CFCAC4405
:10515000A4EB00084FF0F00909FB0C8CDFF8D080BD
:10516000D8F80080DFF8C490B9F8009028F81C90B7
:1051700001EE901AF8EEE11A81EE802AFCEEC21AD6
:1051800011EE90CA1FFA8CFCAC4404EB00084FF0FF
:10519000F00909FB0C8CDFF89880D8F80080DFF864
:1051A0008C90B9F8009028F81C9001EE901AF8EE57
:1051B000E11A81EE802AFCEEC21A11EE90CA1FFAA3
:1051C0008CFCA5EB0C0C04EB00084FF0F00909FB7C
:1051D0000C8CDFF85C80D8F80080DFF85090B9F8CC
:1051E000009028F81C9001EE901AF8EEE11A81EE7A
:1051F000802AFCEEC21A11EE90CA1FFA8CFCA5EBB5
:105200000C0CA4EB00084FF0F00909FB0C8CDFF844
:105210002080D8F80080DFF81490B9F8009028F8C2
:105220001C9013468B4207E022E000006C00002037
:1052300070000020000000000CDC01F1010C614650
:105240004FF0010808EB4C0C6244C84202D1834283
:1052500000DC0023834207DD00F1010C60464FF0C3
:10526000010808EB4C0C624400287FF760AF9BE01C
:105270007942002000BFC1EE201AB0EE610A01EEB3
:10528000900AF8EEE11A81EE802AFCEEC21A11EEC5
:1052900090CA1FFA8CFCA4EB0C0C05EB01084FF034
:1052A000F00909FB08CCDFF8F884D8F80080DFF8B3
:1052B000F494B9F8009028F81C9001EE900AF8EEEA
:1052C000E11A81EE802AFCEEC21A11EE90CA1FFA92
:1052D0008CFCA44405EB01084FF0F00909FB08CC55
:1052E000DFF8BC84D8F80080DFF8B894B9F80090F3
:1052F00028F81C9001EE900AF8EEE11A81EE802A5F
:10530000FCEEC21A11EE90CA1FFA8CFCA444A5EB65
:1053100001084FF0F00909FB08CCDFF88484D8F8C5
:105320000080DFF88094B9F8009028F81C9001EE16
:10533000900AF8EEE11A81EE802AFCEEC21A11EE14
:1053400090CA1FFA8CFCA4EB0C0CA5EB01084FF0E3
:10535000F00909FB08CC4FEA4C08DFF844C4DCF83C
:1053600000C0DFF84094B9F800902CF8089013467C
:1053700083420CDC00F1010C60464FF0010808EBA1
:105380004C0C6244C14202D18B4200DC00238B42B0
:1053900007DD01F1010C61464FF0010808EB4C0CF0
:1053A000624400297FF767AFBDE8F08310B502467D
:1053B0000020002100BF16E0002111E052F820304B
:1053C00001248C4023402BB9F74B1B88F44C2468F4
:1053D000238004E0F34B1B88F14C24682380491C94
:1053E0002029EBD3401CB0F5166FE5D310BD2DE995
:1053F000F84F04460026B2460027B0460025AB46CB
:1054000000200090E648D0F80090B4F802A0A088F0
:105410004AEA004A6689A08946EA0046678AA08A65
:1054200047EA0047B4F81680208B48EA0048A58B6D
:10543000DE48006838BB42463946DD48FCF704FFC9
:105440000220FCF78CFD0420B0EBD50F07D1002122
:10545000D748FCF733FF0220FCF781FD3EE0022035
:10546000B0EBD50F07D10221D148FCF727FF02206E
:10547000FCF775FD32E00121CD48FCF71FFF02204B
:10548000FCF76DFD2AE042463946C9488030FCF7FA
:10549000DBFE0220FCF763FD0420B0EBD50F08D142
:1054A0000021C3488030FCF709FF0220FCF757FDBC
:1054B00014E00220B0EBD50F08D10221BC488030A7
:1054C000FCF7FCFE0220FCF74AFD07E00121B8488A
:1054D0008030FCF7F3FE0220FCF741FDAAEB060A40
:1054E0003444A8F101007843E90800FB0199002643
:1054F00019E0207889F80000641C09F101090BF11A
:10550000010BE808BBFBF0F0B8420BD10098404516
:1055100008D20098401C00907800E90800FB11991F
:105520004FF0000B761C5645E3D3BDE8F88F2DE90C
:10553000F04F8BB005460E4614461F464FF000084C
:10554000C146C246C3469748008800F478404FEAF7
:10555000E0299448007800F01F0B9248008800F47E
:10556000FC604FEA601AF02000FB06508C49096885
:10557000022202FB0018FBF77FF94FF44030019044
:1055800002200290CDF810A0CDF80CB0CDF8149008
:105590000F200690CDF81C80C4F1F0000890099708
:1055A0000A9401A8FBF773F9FBF7EAF900BF0220A0
:1055B000FBF712FB0028FAD07A480088FFF750FA70
:1055C0000BB0BDE8F08F2DE9F04706460F46904638
:1055D0000320A0EB48090024454634E08DB16B045C
:1055E0001A0C7B1B99B2331B98B20123FFF798FB6F
:1055F0006B041A0C7B1B99B2331998B20123FFF785
:105600008FFB8CB163041A0C3B1B99B2731B98B2CD
:105610000123FFF785FB63041A0C3B1B99B2731936
:1056200098B20123FFF77CFBB9F1000F04DA0620E2
:1056300000EB8400814405E0601B0A2101EB80003F
:1056400081446D1E641CAC42C8D94246394630467E
:10565000FFF7E8FBBDE8F08770B504460D46002C67
:1056600006DBEF2C04DC002D02DBB5F5A07F00DBB0
:1056700070BDA9B2A0B200230122FFF751FB00BF09
:10568000F6E72DE9F04F89B005460E4691469A4659
:105690000027B846002008900790069005900490D7
:1056A000039000248346029001900090A9EB05002E
:1056B000002802DDA9EB050001E0A5EB090007B217
:1056C000AAEB0600002802DDAAEB060001E0A6EB2B
:1056D0000A000FFA80F828B2089030B20790A94566
:1056E00003DB01200690059003E04FF0FF300690A9
:1056F0000590B24503DB01200490039003E04FF0D6
:10570000FF300490039047450DDB00200690039086
:105710003C46384607EBD07149100FFA81FBCDF8B3
:10572000088001970CE00020059004904446404614
:1057300008EBD07149100FFA81FB0297CDF8048075
:105740000020009025E0DDE90710FFF785FF0298B3
:1057500058440FFA80FBA3450DDBABEB04000FFAB6
:1057600080FB06990898084400B2089004990798AD
:10577000084400B2079005990898084400B20890C0
:1057800003990798084400B207900098401C00B2A3
:105790000090DDE900018842D5DD09B0BDE8F08F59
:1057A000700000206C0000206E00002074000020BB
:1057B000846801402DE9F04104460D460027B846B3
:1057C0002646032D01D0BDE8F08111E0B4F9007048
:1057D000B4F90280241DB4F802C01FFA8CF3B4F8A7
:1057E00000C01FFA8CF21FFA88F1B8B2FFF749FF28
:1057F000681E80B20500E9D1B4F802C01FFA8CF32C
:10580000B4F800C01FFA8CF2B6F802C01FFA8CF18F
:10581000B6F800C01FFA8CF0FFF733FF00BFD2E7E5
:105820002DE9FF4F89B0054689461E46DDF858A090
:105830000027B846BB4600200890079006900590C8
:10584000049000240390029001900090A9EB0500C1
:10585000002802DDA9EB050001E0A5EB090007B275
:10586000AAEB0600002802DDAAEB060001E0A6EB89
:105870000A000FFA80F80FFA85FB30B20890A945AC
:1058800003DB01200790069003E04FF0FF30079004
:105890000690B24503DB01200590049003E04FF031
:1058A000FF300590049047450DDB002007900490E1
:1058B0003C46384607EBD071491009B20391CDF848
:1058C000088001970CE00020069005904446404671
:1058D00008EBD071491009B203910297CDF804800A
:1058E0000020009029E0089A91B21FFA8BF0179BD4
:1058F0000B9AFFF7C6FEDDE90210084400B20390E0
:105900000398A0420CDB0398001B00B20390079899
:1059100058440FFA80FB05990898084400B2089093
:10592000069858440FFA80FB04990898084400B27E
:1059300008900098401C00B20090DDE90001884208
:10594000D1DD0DB0BDE8F08F2DE9F04104460D46E4
:1059500000260027022D01DABDE8F08110E0B4F93D
:105960000060B4F90270241DB4F802C01FFA8CF371
:10597000B4F800C01FFA8CF2B9B2B0B2FFF781FEE2
:10598000681E80B20500EAD100BFE5E72DE9F047C7
:1059900004460F46904600250026A146022F01DA54
:1059A000BDE8F087B4F90050B4F9026014E0241D9A
:1059B000B4F802C0B4441FFA8CF3B4F800C0AC448D
:1059C0001FFA8CF2B1B2A8B2FFF75BFE2088284420
:1059D00005B26088304406B2781E80B20700E6D176
:1059E000B8F1000F0BD0B3B2AAB2B9F802C01FFAD7
:1059F0008CF1B9F800C01FFA8CF0FFF742FE00BF2F
:105A0000CEE770B504460D4629462046FFF79CFFB9
:105A100004EB850636F8026CB3B204EB850636F863
:105A2000046CB2B26688B1B22688B0B2FFF729FE24
:105A300070BD70B504460D46002229462046FFF78A
:105A4000A5FF70BD70B504460D46012229462046CB
:105A5000FFF79CFF70BD2DE9F04F8BB004468946DF
:105A600000200A9009900025002600278046089013
:105A7000079082468346069005900490039002901A
:105A8000208880B204900590608880B202900390D4
:105A90000120069023E0069804EB8000B0F902A0F4
:105AA0000598824502DA1FFA8AF00590049882452B
:105AB00002DD1FFA8AF00490069834F920B00398AA
:105AC000834502DA1FFA8BF003900298834502DDCA
:105AD0001FFA8BF002900698401C00B206900698C0
