:020000040800F2
:10000000B8080020550200085D0200085F020008E1
:100010006102000863020008650200080000000099
:10002000000000000000000000000000670200085F
:1000300069020008000000006B0200086D02000861
:100040006F0200086F0200086F0200086F020008CC
:100050006F0200086F0200086F0200086F020008BC
:100060006F0200086F0200086F0200086F020008AC
:100070006F0200086F0200086F0200086F0200089C
:100080006F0200086F0200086F0200086F0200088C
:100090006F0200086F0200086F0200086F0200087C
:1000A0006F0200086F0200086F0200086F0200086C
:1000B000652F00086F0200086F0200086F02000839
:1000C0006F0200086F0200086F0200086F0200084C
:1000D0006F0200086F0200086F020008F72E000888
:1000E0006F0200086F0200086F0200086F0200082C
:1000F0006F0200086F0200086F0200086F0200081C
:100100006F0200086F0200086F0200086F0200080B
:100110006F0200086F0200086F0200086F020008FB
:100120006F0200086F0200086F0200086F020008EB
:100130006F0200086F0200086F0200086F020008DB
:100140006F0200086F0200086F0200086F020008CB
:100150006F0200086F0200086F0200086F020008BB
:100160006F0200086F0200086F0200086F020008AB
:100170006F0200086F0200086F0200086F0200089B
:100180006F0200086F0200086F0200086F0200088B
:100190006F0200086F0200086F0200086F0200087B
:1001A0006F0200086F0200086F02000800F002F8FA
:1001B00000F041F80AA090E8000C82448344AAF1C0
:1001C0000107DA4501D100F036F8AFF2090EBAE8BE
:1001D0000F0013F0010F18BFFB1A43F0010318477B
:1001E000E83B0000083C0000103A24BF78C878C102
:1001F000FAD8520724BF30C830C144BF04680C602D
:10020000704700000023002400250026103A28BF74
:1002100078C1FBD8520728BF30C148BF0B60704778
:10022000642903F06B82002070471FB503F0BBFB0D
:100230001FBD10B510BD03F07FFB1146FFF7F5FFA2
:1002400002F0F8FD03F09DFB03B4FFF7F2FF03BCDF
:1002500003F0A2FB0948804709480047FEE7FEE794
:10026000FEE7FEE7FEE7FEE7FEE7FEE7FEE7FEE766
:1002700004480549054A064B70470000A5030008DD
:10028000AD010008B8020020B8080020B804002022
:10029000B80400200CB5002001900090834800684D
:1002A00040F480308149086000BF8048006800F455
:1002B000003000900198401C0190009818B90198F6
:1002C000B0F5A04FF1D17948006800F4003010B1CA
:1002D0000120009001E0002000900098012860D1EA
:1002E00072484030006840F08050704940310860EA
:1002F0006F48006840F440406D4908606B48083022
:1003000000686A49083108600846006840F4004007
:1003100008600846006840F4A05008606548091F5E
:100320000860081F006840F08070091F086000BF67
:100330005E48006800F000700028F9D05C48006852
:1003400040F480305A49086000BF5948406800F4C2
:1003500080300028F9D05648006840F400305449F5
:10036000086000BF5248406800F400300028F9D00F
:1003700040F20570504908604C480830006820F091
:1003800003004A49083108600846006840F002004E
:10039000086000BF45480830006800F00C000828DD
:1003A000F8D10CBD10B54548006840F470004349D1
:1003B00008603E48006840F001003C4908600020A9
:1003C0003A4908310860394800683D4908403749D2
:1003D00008603C48091D0860081F006820F4802060
:1003E000091F0860002031490C310860FFF752FFF7
:1003F0004FF0006031498039086010BD70B50020B1
:100400000022022300240221284D08352D6805F022
:100410000C0020B1042806D0082834D107E02A4D6A
:100420002A4E356033E02A4D284E35602FE01F4DAF
:100430002D1D2D68C5F380541C4D2D1D2D6805F014
:100440003F0154B1224DB5FBF1F5184E361D36680B
:10045000C6F3881605FB06F209E01B4DB5FBF1F566
:10046000124E361D3668C6F3881605FB06F20F4D90
:100470002D1D2D68C5F301456D1C6B00B2FBF3F516
:10048000124E356003E0104D104E356000BF00BFC6
:10049000064D08352D68C5F303150E4E705D0B4DE6
:1004A0002D68C540094E356070BD0000003802401F
:1004B00000700040195A4007003C024088ED00E0FF
:1004C000FFFFF6FE103000240024F400000000209E
:1004D00000127A000400002032490143324A1160C0
:1004E000704770B5002100230F22C4781CB32E4C36
:1004F000246804F4E064C4F5E064C4F30721C1F1A6
:100500000404E3B20A4144789C40E1B28478144088
:1005100021430C07210E254C05786155047804F021
:100520001F050124AC4005786D11AD0005F1E025F3
:10053000C5F8004109E0047804F01F050124AC402F
:100540001B4D0678761145F8264070BD194A0A40C1
:100550000243154B1B1F1A60704739B1124A121D16
:1005600012680243104B1B1D1A6006E00E4A121D52
:10057000126882430C4B1B1D1A607047042808D177
:100580004FF0E021096941F004014FF0E0221161D0
:1005900007E04FF0E021096921F004014FF0E0226B
:1005A000116170470000FA050CED00E000E400E086
:1005B00080E100E080FFFF1F10B5044698488442A8
:1005C00008D10121084600F087FB0021012000F03E
:1005D00083FB76E09348844208D10121022000F099
:1005E0007BFB0021022000F077FB6AE08E4884420A
:1005F00008D10121042000F06FFB0021042000F04D
:100600006BFB5EE08948844208D10121082000F09C
:1006100063FB0021082000F05FFB52E08448844225
:1006200008D10121102000F057FB0021102000F01C
:1006300053FB46E07F48844208D10121202000F08E
:100640004BFB0021202000F047FB3AE07A4884422F
:1006500008D10121402000F03FFB0021402000F0A4
:100660003BFB2EE07548844208D10121802000F038
:1006700033FB0021802000F02FFB22E070488442F1
:1006800008D10121801500F027FB0021A01500F002
:1006900023FB16E06B48844208D10121401500F08D
:1006A0001BFB0021601500F017FB0AE0664884423E
:1006B00007D10121001500F00FFB0021201500F0EB
:1006C0000BFB10BDF0B50A4600210023002400BF3B
:1006D0003DE0012505FA01F3156805EA03049C4293
:1006E00034D105684F000326BE40B5430560157937
:1006F0004E00B5400668354305601579012D02D0DE
:100700001579022D16D185684F000326BE40B543EA
:10071000856055794E00B5408668354385604568EB
:1007200001268E40B5434560456896798E40B6B245
:1007300035434560C5684F000326BE40B543C560DC
:10074000D5794E00B540C6683543C560491C1029AF
:10075000BFD3F0BD4FF6FF710160002101714171FF
:100760008171C171704708B54FF480320092009AD0
:100770000A430092009AC261C161009AC261C269D3
:100780000092C269009208BD0246002013690B4026
:100790000BB1012000E0002070470146086980B2DB
:1007A00070470246002053690B400BB1012000E066
:1007B000002070470146486980B270470183704746
:1007C000418370470AB1018300E041837047416172
:1007D000704742694A4042617047F0B500230024E7
:1007E0004D07ED0E02FA05F3CE1000F1200555F885
:1007F00026504E07F70E0F26BE40B543CF1000F12E
:10080000200646F82750CE1000F1200555F8265056
:1008100045EA0304CE1000F1200545F82640F0BD5E
:10082000000002400004024000080240000C0240A8
:10083000001002400014024000180240001C024058
:10084000002002400024024000280240F6480068D0
:1008500040F00100F44908600020F34908310860C5
:10086000F1480068F1490840EF490860F048091D67
:100870000860F048EC4984310860ED481038091DE3
:100880000860E948006820F48020E74908600020FB
:10089000E5490C310860E4498C310860704700215B
:1008A000E14A921C117011460870704710B501465C
:1008B0000022002300204A11012A02D1DA4C2368C9
:1008C00008E0022A03D1D84C7034236802E0D64CE9
:1008D0007434236801F01F02012494401C400CB1C1
:1008E000012000E0002010BD38B500200090002459
:1008F000002500BF3120FFF7D9FF05460098401CB6
:1009000000900098B0F5A04F01D0002DF2D031201A
:10091000FFF7CCFF08B1012400E00024204638BDD9
:1009200001460020C04A106820F0F80040EAC100EB
:1009300010607047C049086070470021BA4A7032A1
:1009400011701170012802D004280AD104E001219D
:10095000B54A7032117005E00521B34A703211704A
:1009600000E000BF00BF7047B4490860704770B531
:10097000049C41EA82150126C6EB530645EA06456A
:10098000054345EA0465A84E361D356070BDAA4989
:100990000866704710B5830143EA016343EA0273B6
:1009A000A14C8434236010BDA3498866704710B5FC
:1009B000830143EA016343EA02739B4C883423605A
:1009C00010BD9D49086770479B49C864704702463F
:1009D0000020954B0833186820F0EC6042EA0103D0
:1009E0001843914B083318607047024600208E4B25
:1009F0000833186820F0784042EA010318438A4B14
:100A000008331860704701460020874A0832106892
:100A100020F00300084310607047834808300068E6
:100A200000F00C007047014600207F4A0832106831
:100A300020F0F000084310607047014600207A4A19
:100A40000832106820F4E0500843106070470146F7
:100A50000020754A0832106820F4604040EAC10066
:100A600010607047F0B50021002200240225002606
:100A700002236D4F08373F6807F00C0121B10429AC
:100A800005D0082937D105E06D4F076036E06D4F7E
:100A9000076033E0644F3F1D3F68C7F38056624FE5
:100AA0003F1D3F6807F03F036EB1664FB7FBF3F79A
:100AB000DFF874C10CF1040CDCF800C0CCF3881C26
:100AC00007FB0CF40CE05E4FB7FBF3F7DFF858C1FF
:100AD0000CF1040CDCF800C0CCF3881C07FB0CF410
:100AE000514F3F1D3F68C7F301477F1C7D00B4FB9A
:100AF000F5F7076002E0524F076000BF00BF4A4FA2
:100B000008373F6807F0F00109094F4F7A5C076822
:100B1000D7404760444F08373F6807F4E051890ADF
:100B2000494F7A5C4768D74087603F4F08373F6836
:100B300007F46041490B444F7A5C4768D740C7606F
:100B4000F0BD002100F44072B2F5407F0AD1364A70
:100B50000832116821F4F8113C4A02401143324A2C
:100B600008321160304A70321268C0F30B031A4326
:100B70002D4B70331A607047304944390860704714
:100B80002E49403908607047314908607047014676
:100B90000020254A8C32106820F01F004A1E1043A6
:100BA000214A8C3210607047014600201E4A8C3268
:100BB000106820F4F8504A1E40EA02201A4A8C328B
:100BC0001060704701460020174A8C32106820F4EC
:100BD000401008431060704701460020124A8C32D2
:100BE000106820F440000843106070470146002060
:100BF0000D4A8C32106820F4403008431060704772
:100C000014490860704739B1074A3032126802430C
:100C1000054B30331A6006E0034A303212688243D3
:100C2000014B30331A60704700380240FFFFF6EA8C
:100C3000103000240030002000004742800E474260
:100C40000024F40000127A0014000020FFFCFF0FC3
:100C50005C014742E011474229B1894A12680243C8
:100C6000874B1A6004E0864A12688243844B1A60FC
:100C7000704739B1824A121D12680243804B1B1D16
:100C80001A6006E07E4A121D126882437C4B1B1DCF
:100C90001A60704739B17A4A0C3212680243784BB5
:100CA0000C331A6006E0764A0C3212688243744BA9
:100CB0000C331A60704739B1714A1032126802431E
:100CC0006F4B10331A6006E06D4A1032126882438F
:100CD0006B4B10331A60704739B1694A243A126875
:100CE0000243674B243B1A6006E0654A243A1268C7
:100CF0008243634B243B1A60704739B1604A203A03
:100D0000126802435E4B203B1A6006E05C4A203AC0
:100D1000126882435A4B203B1A60704739B1584AD7
:100D20001C3A12680243564B1C3B1A6006E0544AB8
:100D30001C3A12688243524B1C3B1A60704739B10F
:100D40004F4A143A126802434D4B143B1A6006E0B6
:100D50004B4A143A12688243494B143B1A6070475D
:100D600039B1474A103A12680243454B103B1A60AA
:100D700006E0434A103A12688243414B103B1A6026
:100D8000704739B13E4A1C32126802433C4B1C3357
:100D90001A6006E03A4A1C3212688243384B1C3310
:100DA0001A60704739B1364A203212680243344B18
:100DB00020331A6006E0324A203212688243304BF8
:100DC00020331A60704739B12D4A24321268024329
:100DD0002B4B24331A6006E0294A243212688243DE
:100DE000274B24331A60704739B1254A2C321268D8
:100DF0000243234B2C331A6006E0214A2C3212683E
:100E000082431F4B2C331A60704739B11C4A303271
:100E1000126802431A4B30331A6006E0184A303227
:100E200012688243164B30331A60704739B1144A46
:100E3000273A12780243124B273B1A7006E0104AF9
:100E4000273A127882430E4B273B1A7070470C48A2
:100E50004030006840F080700949403108607047B8
:100E600001460020064A283A12680A400AB10120C9
:100E700000E00020704702492639087070470000E2
:100E80003438024010B50446F648844208D10121A6
:100E90008014FFF765FF0021A014FFF761FF3CE01D
:100EA000F148844208D101210014FFF748FF0021D6
:100EB0002014FFF744FF30E0EC48844208D10121C0
:100EC000C013FFF73CFF0021E013FFF738FF24E0D9
:100ED000E748844208D101214014FFF741FF002177
:100EE0006014FFF73DFF18E0E248844209D1012178
:100EF0000805FFF735FF00214FF48010FFF730FFA2
:100F00000BE0DD48844208D101214805FFF728FFA6
:100F100000214FF40010FFF723FF10BD10B5002291
:100F2000028802F441520B884C8823438C88234367
:100F3000CC8823430C8923434C8923438C89234346
:100F4000CC8923431A430280838B4FF2FF742340E2
:100F500083830B8A038210BD2DE9F04F0025022305
:100F60000024012700220026944690469146B0F8BE
:100F70001CA04FF2400B0AEA0B0AA0F81CA04FF08D
:100F8000020AA0F820A0858BD1F808A0BAF1020FC0
:100F900001D100BF6CE0B1F804A0BAF1000F01D19B
:100FA000012700E00227DFF8D4A2DAF800A00AF453
:100FB000000ABAF1000F09D0DFF8C0A2DAF800A0E9
:100FC0002AF4000ADFF8B4B2CBF800A0DFF8ACA234
:100FD0000AF17C0ADAF800A0CAF38818DFF89CA2AC
:100FE0000AF17C0ADAF800A0CAF30279DFF88CA2D1
:100FF000AAF1040ADAF800A00AF03F0CDFF880A298
:10100000BAFBFCFA0AFB08FABAFBF9F6B1F806A03B
:10101000BAF5007F0ED14FEA162A0AEB8A0A4FEA88
:101020004A0AD1F808B0BAFBFBFA0AF1050A1FFA1E
:101030008AF20FE04FEA471AB6FBFAFA0AEB8A0A7D
:101040004FEA4A0AD1F808B0BAFBFBFA0AF1050ADE
:101050001FFA8AF24FF00A0AB2FBFAF202F0010418
:10106000A2EB040ACAF34F034FF6FF7A0AEA0424FC
:10107000022B01DBFF2B01DD02230024B1F806A0C7
:101080004AEA040A4AEA030AA0F820A0B1F804A038
:10109000B1F80CB04AEA0B0AB1F802B04AEA0B0AFE
:1010A000B1F800B04AEA0B0A4AF4006A4AEA0505B8
:1010B0008583BDE8F08F0021018041808180C1805F
:1010C000018141818181C181072101827047002115
:1010D000018041808180C180022181600021818165
:1010E000704721B1028842F04002028004E0028889
:1010F0004FF6BF731A400280704721B1828B42F4D1
:101100008062828304E0828B4FF6FF331A40828331
:10111000704702884FF2FF731A40028002880A4328
:1011200002807047B1F5804F04D1028842F48042BA
:10113000028004E002884BF6FF731A400280704779
:101140004FF6FF62914204D0028842F4807202801E
:1011500004E002884FF6FF631A400280704721B115
:10116000828842F00402828004E082884FF6FB739A
:101170001A408280704721B1828842F0100282803A
:1011800004E082884FF6EF731A408280704730B5D2
:1011900000220023848B4FF240052C4084830224DC
:1011A0000484828B0C88B4F5007F01D00C8814B9BC
:1011B0004FF4807308E00C88B4F5407F03D00C88AE
:1011C000B4F5807F00D100238C888D892C434D8815
:1011D0002C431C4344F400642243828330BD014607
:1011E000888970478181704721B1028842F400529A
:1011F000028004E002884DF6FF731A4002807047B7
:10120000018841F480510180704702460020012985
:1012100001D0108B00E0908A70470146088A704721
:101220001AB183880B43838002E083888B438380D9
:10123000704730B5002400230C110125A540ABB246
:101240001AB185881D43858002E085889D4385808D
:1012500030BD0246002013890B400BB1012000E095
:10126000002070470030014000380040003C004042
:101270000034014000500140005401400838024051
:1012800000127A00CA4302817047F0B5024600207E
:1012900000240023002501F00F070126BE40B4B250
:1012A0000B1101269E40B3B2968806EA0305168903
:1012B000264016B10DB1012000E00020F0BD10B5B0
:1012C000002201F00F040123A3409AB2D34303810B
:1012D00010BD000010B50446FA48844208D101212F
:1012E0001020FFF73DFD00211020FFF739FD57E0EA
:1012F000F548844209D101214804FFF720FD00216F
:101300004FF40030FFF71BFD4AE0F048844209D15A
:1013100001218804FFF713FD00214FF48020FFF71F
:101320000EFD3DE0EA48844209D10121C804FFF7DF
:1013300006FD00214FF40020FFF701FD30E0E548F5
:10134000844209D101210805FFF7F9FC00214FF47F
:101350008010FFF7F4FC23E0DF48844208D101212C
:101360002020FFF7FDFC00212020FFF7F9FC17E00B
:10137000DA48844209D101218807FFF7E0FC002107
:101380004FF08040FFF7DBFC0AE0D548844207D1EC
:1013900001214005FFF7D3FC00216005FFF7CFFCDA
:1013A00010BD2DE9FF4705460E460024A14600BFAB
:1013B000A046B08900B100BF2C8A24F44054F088C4
:1013C00004432C82AC8941F20C608443B08831899B
:1013D0000843718908430443AC81AC8A24F4407407
:1013E000B0890443AC826846FFF73CFBB5488542B0
:1013F00002D0B948854202D1DDF80C9001E0DDF859
:101400000890A88900F4004040B109EBC90000EB46
:10141000091031684900B0FBF1F707E009EBC9009A
:1014200000EB091031688900B0FBF1F76420B7FBCD
:10143000F0F004012009642101FB1078A88900F470
:10144000004040B1322000EBC800B0FBF1F000F0EA
:101450000700044308E0322000EB08106421B0FBD1
:10146000F1F000F00F0004432C81BDE8FF874FF43A
:101470001651016000218180C18001810C214181D0
:1014800000218181704710B502460020108A20F4A7
:1014900070600B884C8823438C882343CC8823437B
:1014A0001843108210BD0021018041808180C180DD
:1014B000704721B1828942F40052828104E082891E
:1014C0004DF6FF731A4082817047028B02F47F420F
:1014D0000283028B0A430283704721B1828942F45E
:1014E0000042828103E08289C2F30E02828170474A
:1014F00021B1828A42F40062828204E0828A4FF241
:10150000FF731A4082827047C1F3080282807047DD
:1015100001468888C0F308007047028A4FF6F073CE
:101520001A400282028A0A430282704721B18289EC
:1015300042F00202828104E082894FF6FD731A4074
:101540008281704782894FF2FF731A4082818289BB
:101550000A4382817047028A4FF6DF731A40028283
:10156000028A0A430282704721B1028A42F4804211
:10157000028204E0028A4BF6FF731A40028270472F
:10158000818941F001018181704721B1828A42F055
:101590000802828204E0828A4FF6F7731A40828240
:1015A0007047028BD2B20283028B42EA012202838D
:1015B000704721B1828A42F02002828204E0828A4E
:1015C0004FF6DF731A408282704721B1828A42F05F
:1015D0001002828204E0828A4FF6EF731A40828200
:1015E0007047828A4FF6FB731A408282828A0A43CE
:1015F0008282704721B1828A42F00202828204E034
:10160000828A4FF6FD731A40828270471AB1838A2C
:101610000B43838202E0838A8B4383827047F0B559
:101620000346002400260025002040F66A17B94230
:1016300000D100BF1846C1F3421401F01F06012774
:1016400007FA06F5012C01D10C3004E0022C01D17F
:10165000103000E014301AB107682F43076002E031
:101660000768AF430760F0BD02460020B1F5007F78
:1016700000D100BF13880B400BB1012000E0002017
:10168000704701F40072B2F5007F00D100BFCA4379
:101690000280704770B50246002400230025002018
:1016A00040F66A16B14200D100BFC1F3421501F005
:1016B0001F03012606FA03F3012D13D19689334047
:1016C00017E00000001001400044004000480040C6
:1016D000004C0040005000400014014000780040E1
:1016E000007C0040022D02D1168A334001E0968A28
:1016F00033400C12012606FA04F41688344013B164
:101700000CB1012000E0002070BD10B500220023C4
:1017100040F66A14A14200D100BF0A12012494408D
:10172000A3B2DC43048010BD10B50446FE488442D9
:1017300008D101210846FFF713FB00210120FFF724
:101740000FFB9DE0B4F1804F08D101210846FFF75F
:10175000F6FA00210120FFF7F2FA91E0F348844203
:1017600008D101210220FFF7EAFA00210220FFF749
:10177000E6FA85E0EE48844208D101210420FFF713
:10178000DEFA00210420FFF7DAFA79E0E948844222
:1017900008D101210820FFF7D2FA00210820FFF725
:1017A000CEFA6DE0E448844208D101211020FFF711
:1017B000C6FA00211020FFF7C2FA61E0DF48844238
:1017C00008D101212020FFF7BAFA00212020FFF7DD
:1017D000B6FA55E0DA48844208D101210220FFF729
:1017E000BFFA00210220FFF7BBFA49E0D548844246
:1017F00009D101210804FFF7B3FA00214FF480302A
:10180000FFF7AEFA3CE0D048844209D101214804F8
:10181000FFF7A6FA00214FF40030FFF7A1FA2FE0FE
:10182000CA48844209D101218804FFF799FA0021AE
:101830004FF48020FFF794FA22E0C548844208D193
:1018400001214020FFF77BFA00214020FFF777FAC3
:1018500016E0C048844208D101218020FFF76FFACA
:1018600000218020FFF76BFA0AE0BB48844207D1D1
:1018700001218015FFF763FA0021A015FFF75FFA39
:1018800010BD00220288A84B98420ED0AC4B984263
:101890000BD0B0F1804F08D0A44B984205D0A44B98
:1018A000984202D0A34B984204D14FF68F731A404E
:1018B0004B881A43A04B984207D0A04B984204D0C3
:1018C0004FF6FF431A400B891A4302804B68C362EC
:1018D0000B880385944B984202D0994B984201D1D2
:1018E0008B7A03860123838270474FF0FF3141607A
:1018F00000210180018141808172704701858282CF
:1019000070470A46002101884FF68F731940114332
:101910000180704741627047C16270470146486A62
:1019200070470146088D704721B1028842F00202DB
:10193000028004E002884FF6FD731A40028070476F
:1019400021B1028842F00402028004E002884FF6CE
:10195000FB731A400280704721B1028842F0800276
:10196000028004E002884FF67F731A4002807047BD
:1019700002884FF6F7731A40028002880A430280F9
:10198000704702884FF6FF431A40028002880A43DC
:101990000280704721B1028842F00102028004E017
:1019A00002884FF6FE731A400280704770B500241B
:1019B00000220023058C4FF6FE7635400584028C0C
:1019C0008388048B4FF68F752C40B51E2C400D88F4
:1019D0002C43751E2A408D892A434D882A43524D37
:1019E000A84202D0564DA84213D14FF6F7752A40AF
:1019F000CD892A434FF6FB752A408D882A434FF63E
:101A0000FF652B404FF6FF552B400D8A2B434D8A27
:101A10002B43838004838D684563028470BD70B559
:101A2000002400220023058C4FF6EF763540058414
:101A3000028C8388048B48F6FF752C404FF6FF45D7
:101A40002C400D884FF6FF7606EA05252C434FF60D
:101A5000DF752A408D8906EA05152A434D8806EA76
:101A600005152A43304DA84202D0354DA8421DD15C
:101A70004FF67F752A40CD894FF6FF7606EA0515A9
:101A80002A434FF6BF752A408D8806EA05152A437A
:101A90004FF6FF352B404FF2FF752B400D8A06EABB
:101AA00085052B434D8A06EA85052B4383800483F5
:101AB0008D688563028470BD70B500240022002308
:101AC000058C4FF6FF6635400584028C8388848B35
:101AD0004FF68F752C404FF6FC752C400D882C432B
:101AE0004FF6FF552A408D894FF6FF7606EA052509
:101AF0002A434D8806EA05252A430B4DA84202D009
:101B00000F4DA84238D14FF2FF752A40CD894FF6CC
:101B1000FF7606EA05252A434FF6FF352A408D88D1
:101B200006EA05252A4319E00000014000040040B0
:101B300000080040000C004000100040001400406D
:101B400000040140004001400044014000480140C1
:101B500000180040001C0040002000404EF6FF75B9
:101B60002B404DF6FF752B400D8A06EA05152B43D9
:101B70004D8A06EA05152B43838084838D68C563EF
:101B8000028470BD70B5002200230024058C4EF63F
:101B9000FF7635400584038C8488828B48F6FF7578
:101BA0002A404FF6FF452A400D884FF6FF7606EA99
:101BB00005252A434DF6FF752B408D8906EA05352C
:101BC0002B434D8806EA05352B43FE4DA84202D033
:101BD000FD4DA84208D14BF6FF752C400D8A4FF6FB
:101BE000FF7606EA85152C43848082838D68056420
:101BF000038470BD002101804180818081608181EA
:101C0000C18101824182704770B5034600200024E3
:101C10001846183001258D40ACB21D8CA5431D849B
:101C200009B108290AD100EB610005684FF68F76EB
:101C3000354005600568154305600FE00D1FC5F3CD
:101C40004E052844056848F6FF763540056005686E
:101C50004FF6FF7606EA02263543056070BD416304
:101C6000704781637047C1637047016470470A46DB
:101C70000021018B4FF68F73194011430183704788
:101C80000A460021018B48F6FF7319404FF6FF7397
:101C900003EA02231943018370470A460021818B1E
:101CA0004FF68F7319401143818370470A46002114
:101CB000818B48F6FF7319404FF6FF7303EA022346
:101CC0001943818370470A460021018B4FF6F77351
:101CD00019401143018370470A460021018B4FF2DE
:101CE000FF7319404FF6FF7303EA02231943018380
:101CF00070470A460021818B4FF6F7731940114354
:101D0000818370470A460021818B4FF2FF7319408F
:101D10004FF6FF7303EA02231943818370470A4693
:101D20000021018B4FF6FB7319401143018370476B
:101D30000A460021018B4FF6FF3319404FF6FF731F
:101D400003EA02231943018370470A460021818B6D
:101D50004FF6FB7319401143818370470A460021F7
:101D6000818B4FF6FF3319404FF6FF7303EA0223CE
:101D70001943818370470A460021018B4FF67F7318
:101D800019401143018370470A460021018BC1F3BA
:101D90000E014FF6FF7303EA0223194301837047D4
:101DA0000A460021818B4FF67F73194011438183CE
:101DB00070470A460021818BC1F30E014FF6FF7375
:101DC00003EA02231943818370470A460021018CEC
:101DD0004FF6FD7319401143018470470A460021F4
:101DE000018C4FF6F77319401143018470470A467E
:101DF0000021018C4FF6DF7319404FF6FF7303EAA1
:101E000002131943018470470A460021018C4FF6E2
:101E10007F7319404FF6FF7303EA021319430184DD
:101E200070470A460021018C4FF6FF5319404FF6C8
:101E3000FF7303EA02231943018470470A46002115
:101E4000018C4FF2FF7319404FF6FF7303EA022330
:101E50001943018470470A460021018C4DF6FF7337
:101E600019404FF6FF7303EA0233194301847047A8
:101E700030B5002301248C40A3B2048C9C4304841D
:101E8000048C02FA01F5ADB22C43048430BD30B5A8
:101E9000002304248C40A3B2048C9C430484048C4F
:101EA00002FA01F5ADB22C43048430BD828B4FF2AF
:101EB000FF331A408283828B4FF6FF7303EA0123BC
:101EC0001A4382837047F0B50C4615460021002264
:101ED0000026078C4EF6FF7C07EA0C070784818BEF
:101EE000028C4FF6FF7707EA043640F6FF47394089
:101EF0004FF6FF7707EA052739434FF6FF7707EAE2
:101F00000337394345F6FF773A4046F480573A4362
:101F100081830284F0BD828B4FF6F3731A40828373
:101F2000828B0A4382837047F0B50C461546002128
:101F300000220026078C4FF6FF6C07EA0C07078487
:101F4000818B028C4FF6FF7707EA04264FF60C7759
:101F500039404FF6FF7707EA03172F4339434FF213
:101F6000FF573A4046F480773A4381830284F0BDBC
:101F7000028B4FF2FF331A400283028B4FF6FF733E
:101F800003EA01231A4302837047F0B50C46154655
:101F9000002100220026078C4FF6EF7C07EA0C0791
:101FA0000784018B028C4FF6FF7707EA041640F690
:101FB000FF4739404FF6FF7707EA033739434FF6BB
:101FC000FF7703E0000001400004014007EA052715
:101FD00039434FF65F773A4046F010073A430183A2
:101FE0000284F0BD028B4FF6F3731A400283028B1A
:101FF0000A4302837047F0B50C46154600210022C3
:10200000068C4FF6FE773E400684018B028C4FF61D
:102010000C7631407E1C06EA03162E4331434FF600
:10202000F576324044F00106324301830284F0BD6C
:1020300070B505460C46208850B92389A28861886E
:102040002846FFF7D8FFE1882846FFF7CBFF25E0B9
:10205000208804280AD12389A28861882846FFF7AE
:1020600094FFE1882846FFF783FF17E020880828BF
:102070000AD12389A28861882846FFF755FFE188A5
:102080002846FFF748FF09E02389A288618828468F
:10209000FFF719FFE1882846FFF708FF70BD002110
:1020A00001804180012181800021C1800181704730
:1020B0002DE9F04105460C4600260127608808B945
:1020C000022600E00026A088012801D1022700E0B6
:1020D00001272088A0B92389A28861882846FFF7B4
:1020E0008AFFE1882846FFF77DFF23893A4631467B
:1020F0002846FFF74AFFE1882846FFF739FF13E03B
:102100002389A28861882846FFF73FFFE188284697
:10211000FFF72EFF23893A4631462846FFF76BFF2B
:10212000E1882846FFF75EFFBDE8F0810146486B75
:1021300070470146886B70470146C86B704701467F
:10214000086C70470A884B881A438B881A43CB88DF
:102150001A430B891A434B891A438B891A43A0F8F7
:10216000442070470021018041808180C18001812D
:1021700041818181704731B1B0F8442042F400427E
:10218000A0F8442005E0B0F84420C2F30E02A0F805
:102190004420704721B1828842F00402828004E02A
:1021A00082884FF6FB731A408280704721B1828883
:1021B00042F00102828004E082884FF6FE731A40EA
:1021C000828070471AB183890B43838102E083893F
:1021D0008B43838170478182704702460020138AB7
:1021E0000B400BB1012000E000207047CA4302827F
:1021F000704730B50246002000230024158A05EA06
:102200000103958905EA010413B10CB1012000E036
:10221000002030BDCA430282704741EA0203A0F8A1
:10222000483070471AB183890B43838102E0838968
:102230008B438381704721B1828842F008028280FB
:1022400004E082884FF6F7731A4082807047018954
:102250004FF6F8721140018170470A46002101894A
:102260004FF68F73194011430181704730B5044612
:102270000D4629462046FFF7F0FF208940F0070071
:10228000208130BD2DE9F04104460D4616461F461B
:10229000602D06D13B46012231462046FFF775FEF0
:1022A00005E03B46012231462046FFF7A4FE2946C1
:1022B0002046FFF7D2FF208940F007002081BDE8CB
:1022C000F08130B50C4600210189C9B24FF6FF7587
:1022D00005EA0325154325432943018130BD2DE936
:1022E000F04105460E4617469846002443463A46B6
:1022F00031462846FFF7E5FF2C894FF6F870044079
:1023000044F007044FF68F70044044F070042C81B1
:10231000BDE8F081F0B504460D4616461F463B4623
:10232000324629462046FFF7CCFF208940F4804002
:102330002081F0BD82884FF68F731A408280828898
:102340000A438280704702894FF6F8731A4002816F
:1023500002890A430281704702894FF67F731A404F
:10236000028102890A4302817047F0B50C46154686
:102370001E460021002200230189028B038C4FF6A8
:10238000F877394021434FF6FC473A4040F20117B5
:102390003A434FF6DD773B404FF6FF7707EA0617E3
:1023A0002F433B43018102830384F0BD21B1828826
:1023B00042F08002828004E082884FF67F731A40E8
:1023C00082807047A0F850107047000070B5F74C3D
:1023D000204601F0CFF985B22A462146F44800F0A4
:1023E000ABFF012240F22771F248FFF718F90122F2
:1023F00011469007FFF7E6FE01218807FFF7CAFAAA
:1024000000BFED4800F068FF0028FAD1EA4800F06C
:102410006AFFEA490870084600781B28F1D10022BB
:1024200001218807FFF7CEFE00214FF08040FFF723
:10243000B1FAE348006801F09DF985B22A46E04808
:102440000168DB4800F078FF012240F22771D9488B
:10245000FFF7E5F870BD2DE9F047DA4CDAA5DFA605
:10246000E3A70FF2A438204601F084F91FFA80F99F
:102470004A462146CE4800F05FFF012240F2277114
:10248000CC48FFF7CCF800BFCB4800F025FF002870
:10249000FAD1C94800F027FFC849087008460078FB
:1024A00052281ED004DC1B285AD047286CD142E0A9
:1024B00067282BD0722867D14FF4804000F0C5FF09
:1024C000284601F057F91FFA80F94A462946B848CC
:1024D00000F032FF012240F22771B648FFF79FF863
:1024E00071E04FF4804000F0B7FF304601F042F950
:1024F0001FFA80F94A463146AD4800F01DFF01221F
:1025000040F22771AB48FFF78AF85CE04FF40050C7
:1025100000F09BFF384601F02DF91FFA80F94A467A
:102520003946A34800F008FF012240F22771A14874
:10253000FFF775F847E04FF4005000F08DFF40467C
:1025400001F018F91FFA80F94A464146984800F010
:10255000F3FE012240F227719648FFF760F832E05F
:102560009748006801F006F91FFA80F94A46944836
:1025700001688F4800F0E0FE012240F227718D488B
:10258000FFF74DF8BDE8F087A548006801F0F2F8C4
:102590001FFA80F94A46A2480168854800F0CCFE3F
:1025A000A048006801F0E6F81FFA80F94A469D4805
:1025B00001687F4800F0C0FE012240F227717D488B
:1025C000FFF72DF800BF5FE7F0B5034600200025B8
:1025D0005C5C2D2C4FD1451E4C1C49E01E5D303EED
:1025E0000A2E42D2DFE806F0050B11171D23292F12
:1025F000353B00EB8006002707EB460036E000EB9A
:102600008006012707EB460030E000EB800602273A
:1026100007EB46002AE000EB8006032707EB4600A5
:1026200024E000EB8006042707EB46001EE000EBE9
:102630008006052707EB460018E000EB800606271A
:1026400007EB460012E000EB8006072707EB460089
:102650000CE000EB8006082707EB460006E000EBE5
:102660008006092707EB460000E000BF00BF641C9E
:102670009442B3DD4FE001250C4649E01E5D303E3B
:102680000A2E42D2DFE806F0050B11171D23292F71
:10269000353B00EB8006002707EB460036E000EBF9
:1026A0008006012707EB460030E000EB800602279A
:1026B00007EB46002AE000EB8006032707EB460005
:1026C00024E000EB8006042707EB46001EE000EB49
:1026D0008006052707EB460018E000EB800606277A
:1026E00007EB460012E000EB8006072707EB4600E9
:1026F0000CE000EB8006082707EB460006E000EB45
:102700008006092707EB460000E000BF00BF641CFD
:102710009442B3DD00BF6843F0BD0146002000E0F5
:10272000401C0A5C2E2AFBD170472DE9F043074676
:1027300000260025A9463846FFF7EFFF8046002413
:1027400014E0385D202810D1621E00213846FFF7C2
:102750003BFF0646A8F10102E11C3846FFF734FFB3
:102760000546601C17F8009002E0641C4445E8DB55
:1027700000BFB9F12A0F0ED0B9F12B0F06D0B9F175
:102780002D0F06D0B9F12F0F0ED107E07019BDE85B
:10279000F083701BFBE706FB05F0F8E70DB9224854
:1027A000F5E796FBF5F0F2E72048F0E7B0390008CE
:1027B000500000200048004052010020340000205A
:1027C00024000020F83A00084C65642072656420FB
:1027D0006973206F6E2021210D0A00004C65642072
:1027E000726564206973206F66662021210D0A00DE
:1027F0004C656420677265656E206973206F6E207A
:1028000021210D0A000000004C6564206772656597
:102810006E206973206F66662021210D0A0000007A
:10282000280000202C000020FFC99A3BC76B9F06A0
:1028300010B5002400BFFE4800F04EFD0028FAD17C
:10284000FB4800F050FDFB490870084600782E2830
:1028500010D108460078F8490855641CF5480178FD
:10286000F64800F029FD012240F22771F448FEF7F6
:10287000D6FE10BDEF480078302803DBED48007825
:10288000392813DDEB4800782A280FD0E948007872
:102890002B280BD0E74800782D2807D0E548007892
:1028A0002F2803D0E34800782028C4D1E1480078DD
:1028B000E1490855641CDF480178E04800F0FCFC61
:1028C000012240F22771DE48FEF7A9FEB3E72DE9A9
:1028D000F04F89B0DB4C204600F04CFF80B202463E
:1028E00021460190D54800F027FD012240F22771D2
:1028F000D348FEF794FED4A5D6A6DAA70FF2743813
:102900000FF27C390FF2843A0FF28C3B00BFC848BB
:1029100000F0E2FC0028FAD1C54800F0E4FCC5490B
:1029200008700846007862287ED004DC1B2807D097
:1029300061287AD119E0632878D06428F9D15FE161
:10294000DD48006800F016FF80B202460190DA48C8
:102950000168BA4800F0F0FC012240F22771B84843
:10296000FEF75DFE09B0BDE8F08F284600F002FFDB
:1029700080B2024629460190B04800F0DDFC48468E
:1029800000F0F8FE80B2024649460190AB4800F0E4
:10299000D3FC012240F22771A948FEF740FEFFF761
:1029A00047FFA548FFF7C1FE0890C4A102A8089AF6
:1029B00000F05CFE02A80790504600F0DBFE80B2FB
:1029C0000246514601909D4800F0B6FC079800F081
:1029D000D1FE80B2024601909848079900F0ACFC05
:1029E000584600F0C7FE80B202465946019093480F
:1029F00000F0A2FC012240F227719148FEF70FFE81
:102A000000BF8B4800F068FC0028FAD1884800F02D
:102A10006AFC88490870084600781B28F1D12046D6
:102A200000F0A8FE80B202E010E0A7E17BE00246E1
:102A300021460190814800F07FFC012240F227717D
:102A40007F48FEF7ECFD00BF00BFC0E1304600F05C
:102A500091FE80B2024631460190784800F06CFC4D
:102A6000484600F087FE80B202464946019073480E
:102A700000F062FC012240F227717148FEF7CFFDA1
:102A8000FFF7D6FE6C48FFF750FE08908BA102A816
:102A9000089A00F0EBFD02A80790504600F06AFE8D
:102AA00080B2024651460190644800F045FC079808
:102AB00000F060FE80B2024601906048079900F085
:102AC0003BFC584600F056FE80B202465946019043
:102AD0005A4800F031FC012240F227715848FEF7B5
:102AE0009EFD00BF524800F0F7FB0028FAD1504885
:102AF00000F0F9FB4F490870084600781B28F1D117
:102B0000204600F037FE80B20246214601904B4835
:102B100000F012FC012240F227714948FEF77FFDC8
:102B200000BF00BF53E1384600F024FE80B20246E9
:102B300039460190414800F0FFFB484600F01AFE7C
:102B400080B20246494601903C4800F0F5FB012264
:102B500040F227713A48FEF762FDFFF769FE3648FA
:102B6000FFF7E3FD089055A102A8089A00F07EFD4A
:102B700002A80790504600F0FDFD80B20246514683
:102B800001902E4800F0D8FB079800F0F3FD80B2CA
:102B9000024601902948079900F0CEFB584600F004
:102BA000E9FD80B2024659460190244800F0C4FB7A
:102BB000012240F227712248FEF731FD00BF1C4878
:102BC00000F08AFB0028FAD1194800F08CFB194963
:102BD0000870084600781B28F1D1204600F0CAFD95
:102BE00080B2024621460190144800F0A5FB012264
:102BF00040F227711248FEF712FD00BF00BFE6E069
:102C0000404600F0B7FD80B20246414601900B48B5
:102C100000F092FB484600F0ADFD80B20246494606
:102C20000190064800F088FB012240F2277147E03E
:102C300052010020340000203C0000205000002001
:102C400000480040843A0008612E20506C75730DD6
:102C50000A000000622E2053756274726163740D65
:102C60000A000000632E204D756C7469706C650D50
:102C70000A000000642E204469766964650D0A002C
:102C8000457870726573696F6E3A20000D0A52655F
:102C900073756C743A2000000D0A4553433A207254
:102CA000657475726E2070726576696F73206D65DC
:102CB0006E750D0A0000000024000020256400004D
:102CC000FE48FEF7ACFCFFF7B3FDFD48FFF72DFD16
:102CD0000890FC490898884202D1FBA0079007E0C1
:102CE000AFF2280102A8089A00F0C0FC02A80790E1
:102CF000504600F03FFD80B2024651460190F84830
:102D000000F01AFB079800F035FD80B202460190F2
:102D1000F348079900F010FB584600F02BFD80B2F5
:102D2000024659460190EE4800F006FB012240F2AF
:102D30002771E248FEF773FC00BFEA4800F0CCFAC6
:102D40000028FAD1E74800F0CEFAE74908700846B3
:102D500000781B28F1D1204600F00CFD80B202461D
:102D600021460190DE4800F0E7FA012240F2277187
:102D7000D248FEF754FC00BF00BF28E0DB480068E3
:102D800000F0F8FC80B202460190D8480168D448AF
:102D900000F0D2FAD648006800F0ECFC80B202469F
:102DA0000190D3480168CE4800F0C6FA584600F0BA
:102DB000E1FC80B2024659460190C94800F0BCFAD5
:102DC000012240F22771BD48FEF729FC00BF9EE5B5
:102DD00070B5C84C204600F0CDFC85B22A4621468D
:102DE000BF4800F0A9FA012240F22771B348FEF76C
:102DF00016FC00BFBB4800F06FFA0028FAD1B948B2
:102E000000F071FAB8490870084600781B28F1D123
:102E1000B948006800F0AEFC85B22A46B6480168A1
:102E2000AF4800F089FA012240F22771A348FEF76B
:102E3000F6FB70BDFDF7B6FAFDF7E0FA00F0ECFA2C
:102E400000F08EFA00F01AFBA54800F021FAA54820
:102E500000F01EFAA848006800F08CFC84B22246FC
:102E6000A54801689E4800F067FA012240F22771E8
:102E70009248FEF7D4FB00BF9A4800F02DFA0028D4
:102E8000FAD1984800F02FFA974908700846007860
:102E90003138052811D2DFE800F00306090C0D00D7
:102EA000FFF796FF26E0FFF712FD23E0FFF7D3FAC6
:102EB00020E01FE0FFF78AFA1CE08C48006800F071
:102EC00059FC84B2224689480168854800F034FAEA
:102ED0008748006800F04EFC84B2224684480168AE
:102EE0007F4800F029FA012240F227717348FEF76B
:102EF00096FB00BFC0E710B540F227716F48FEF7A0
:102F0000C9FB012818D1764800F0E6F940B97448A9
:102F100000F0E9F9044621466848FEF7F5FA0BE0AF
:102F2000002240F227716548FEF779FB012240F24A
:102F300025516248FEF773FB40F225515F48FEF7CA
:102F4000A9FB01280DD1002240F225515B48FEF774
:102F500066FB5A48FEF7DCFAC4B22146614800F02D
:102F6000ABF910BD10B501218807FFF742F940B158
:102F70004FF480416148FDF72CFC01218807FFF7E1
:102F800049F910BD10B502215D48FEF762F901282C
:102F90000ED15C4801885A48FEF724F9002202212C
:102FA0005748FEF746F9012211465548FEF741F908
:102FB00001215548FEF74DF9012809D15248FEF785
:102FC0000EF952490880002201214D48FEF731F9DF
:102FD00010BD70B54E4C4F4D204600F0CBFB86B275
:102FE000324621463E4800F0A7F900BF3D4800F0B8
:102FF00073F90028FAD13B4800F075F93A49087096
:10300000084600781B2804D0642816D0752818D1EB
:103010000FE0284600F0AEFB86B232462946304823
:1030200000F08AF9012240F227712448FEF7F7FAEE
:1030300070BD752000F0EBFA20E0642000F0E7FAA4
:103040001CE02A48006800F095FB86B2324627480B
:103050000168234800F070F92548006800F08AFBF9
:1030600086B23246224801681D4800F065F9012207
:1030700040F227711148FEF7D2FA00BFB6E770B5EB
:10308000254C244D204600F075FB86B23246214681
:10309000134800F051F9012240F227710748FEF76A
:1030A000BEFA00BF0F4800F017F90028FAD10D480A
:1030B00000F019F90C49087008462FE0004800405C
:1030C0003C000020FFC99A3B4578707265737369B4
:1030D0006F6E20496E76616C6964202121000000CA
:1030E0005000002052010020340000202800002061
:1030F0002C000020D43C00082400002000180240CE
:103100000030014036000020003C00403800002024
:10311000543C0008743D0008B83B00080078322891
:103120001ED004DC1B2807D0312825D114E0332819
:103130001AD0342820D11BE0284600F01BFB86B2B1
:10314000324629464A4800F0F7F8012240F227713A
:103150004848FEF764FA70BD312000F058FA28E0C4
:10316000322000F054FA24E0332000F050FA20E03E
:10317000342000F04CFA1CE03F48006800F0FAFAF6
:1031800086B232463C480168394800F0D5F83B48E1
:10319000006800F0EFFA86B23246384801683448D9
:1031A00000F0CAF8012240F227713248FEF737FAE0
:1031B00000BF77E770B5324C204600F0DBFA85B2ED
:1031C0002A4621462A4800F0B7F8012240F227712A
:1031D0002848FEF724FA00BF2A4800F07DF80028AE
:1031E000FAD1284800F07FF827490870084600788F
:1031F0001B2806D0612816D0622817D0632819D161
:1032000017E02248006800F0B5FA85B22A461F4848
:103210000168174800F090F8012240F22771154824
:10322000FEF7FDF970BDFFF72AFF20E0FFF7D1FEA2
:103230001DE01CE01048006800F09CFA85B22A46A8
:103240000D4801680A4800F077F80C48006800F063
:1032500091FA85B22A4609480168054800F06CF8E1
:10326000012240F227710348FEF7D9F900BFB3E706
:103270005000002000480040280000202C000020C2
:10328000743D00085201002034000020240000207A
:1032900010B504460020A4F800014FF480712046C8
:1032A00000F087FA10BD01460020B1F80021B2F508
:1032B000807F00D10120704710B503460C461846A8
:1032C000FFF7F1FF38B9B3F800011C54B3F800015F
:1032D000401CA3F8000110BD01460020B1F80021F8
:1032E00002B90120704730B5034600250024184676
:1032F000FFF7F2FFA0B91D78B3F80001401EA3F854
:10330000000100BF04E0601C185C1855601C84B20A
:10331000B3F80001A042F6DC0020B3F800115854C5
:10332000284630BD10B5034600241846FFF7D4FFE9
:1033300000B91C78204610BDF0B507460D4616466C
:10334000002405E0295D3846FFF7B6FF601C84B213
:10335000B44204DA3846FFF7A6FF0028F2D0F0BDE9
:1033600000B587B005A8FDF7F5F901A8FEF77FF8CD
:1033700001218804FDF78EFC01210220FDF743FCAA
:1033800007220A212248FDF728FA07220B212048AC
:10339000FDF723FA02208DF8180000208DF81A009E
:1033A0004FF44060059001208DF81B0003208DF83C
:1033B000190005A91648FDF785F94FF4165001903C
:1033C0000020ADF810000C20ADF80E000020ADF884
:1033D0000C00ADF80A00ADF8080001A90D48FDF792
:1033E000E0FF4FF44070FDF777F827208DF80000DC
:1033F00001208DF8030000208DF801006846FDF7DC
:1034000070F801210348FEF754F807B000BD000032
:1034100000040240004800401CB501214020FDF797
:10342000F2FB4FF4C040009001208DF80400002012
:103430008DF8060003208DF8050000208DF80700A8
:1034400069460D48FDF73EF91CBD10B504462146FE
:103450000948FDF7B3F910BD10B5044621460648EA
:10346000FDF7AEF910BD0449143109684140024A24
:1034700014321160704700000018024000B589B096
:1034800004A8FDF718FE02A8FDF764F9012108035E
:10349000FDF711FC0121C803FDF7FCFB01210846E3
:1034A000FDF7B1FBE020029002208DF80C00002017
:1034B0008DF80E0002208DF80D0000208DF80F0011
:1034C00002A96648FDF7FEF8052211466348FDF79C
:1034D00084F9052206216148FDF77FF905220721BD
:1034E0005E48FDF77AF901208DF80C00102002905B
:1034F00000208DF80E0002208DF80D008DF80F00D1
:1035000002A95648FDF7DEF80020ADF810004FF490
:103510008270ADF812000820ADF81C000020ADF854
:103520001400ADF81600ADF818004FF44070ADF877
:103530001A000020ADF81E0004A94948FDF7EEFC72
:1035400001214748FDF7CDFD01210420FDF75BFB7C
:103550004FF4E050029002208DF80C0000208DF80E
:103560000E0002208DF80D0000208DF80F0002A93A
:103570003C48FDF7A7F806220A213A48FDF72DF945
:1035800006220B213748FDF728F906220C21354881
:10359000FDF723F94FF40040029000208DF80C0055
:1035A00002208DF80D0002A92C48FDF78BF80020B1
:1035B000ADF81000ADF812000820ADF81C00002096
:1035C000ADF81400ADF81600ADF81800ADF81A000B
:1035D000ADF81E0004A92448FDF7A0FC01212248F3
:1035E000FDF77FFD4FF4A060FCF776FF23208DF8F8
:1035F000040001208DF8050000208DF80600012050
:103600008DF8070001A8FCF76CFF09B000BD10B5EC
:10361000044600BF02211248FDF71BFE0028F9D026
:1036200021460F48FDF7DEFD00BF01210C48FDF7E4
:1036300010FE0028F9D00A48FDF7D1FD10BD10B5E5
:1036400000BF01210848FDF704FE0028F9D0064814
:10365000FDF7C5FD0446204610BD000000000240F5
:103660000030014000080240003C00400FB41CB58F
:10367000074B06AA7B4469460090059800F01DF9A7
:103680000020694600F02CF91CBC5DF814FB00001A
:10369000690200002DE9F0410E4604460020206238
:1036A0002046E168884730B3252805D0D4E90121B8
:1036B0009047206A401CF2E7E168204600278847CF
:1036C000050018D0A5F14100192802D820354FF483
:1036D00000673246294620462760FCF7A1FD40B12D
:1036E000012804D0F61D26F007060836D8E7361D57
:1036F000D6E72846DAE7206ABDE8F0812DE9F041F7
:103700000646002410687529314616A510D0AFF37F
:103710000080002802DA404213A507E031688A07DA
:1037200001D512A502E0490704D511A5012401E045
:10373000AFF3008000210A2206F1240709E0B0FB64
:10374000F2FCB0FBF2F302FB1C0030307854184658
:10375000491C0028F3D123462A463046BDE8F041F3
:1037600000F04CB8000000002D0000002B0000000D
:103770002000000010B5431C02E010F8011B71B1DD
:103780008107FAD14FF0013202C88C1A8C4314EA37
:10379000C211F9D0C01A0A0603D0C01E10BDC01A4B
:1037A00010BD0A0401D0801E10BD0902FCD0401ECD
:1037B00010BD4FF000020429C0F0128010F0030C7D
:1037C00000F09580CCF1040CBCF1020F18BF00F89A
:1037D000012BA8BF20F8022BA1EB0C0100F087B849
:1037E0005FEAC17C24BF00F8012B00F8012B48BF21
:1037F00000F8012B70477047704770472DE9F0477C
:103800000D4699469246044600F124080168880650
:1038100004D5E06921F01001216000E00120A842F8
:1038200001DD471B00E00027A1697A1902EB0900BE
:10383000081AA0612078C00602D42046AFF30080A9
:10384000002608E0D4E901211AF806009047206A12
:10385000401C761C20624E45F4DB2078C0060AD559
:103860002046AFF3008006E0D4E9012130209047E4
:10387000206A401C2062381EA7F10107F4DC07E033
:10388000D4E9012118F805009047206A401C206205
:10389000281EA5F10105F3DC2046AFF30080207857
:1038A000000602D50220BDE8F0870120FBE70000FA
:1038B00001694A1C02610878704700B58FB0CDE9F4
:1038C00001310021059105497944CDE903101146E4
:1038D0006846FFF7DFFE0FB000BD0000E5FFFFFF09
:1038E0000A6802F8010B0A6070474FF0000200B549
:1038F000134694469646203922BFA0E80C50A0E813
:103900000C50B1F12001BFF4F7AF090728BFA0E8C0
:103910000C5048BF0CC05DF804EB890028BF40F88C
:10392000042B08BF704748BF20F8022B11F0804FCE
:1039300018BF00F8012B7047754600F029F8AE4615
:1039400005006946534620F00700854618B020B5AB
:10395000FCF78EFCBDE820404FF000064FF000075A
:103960004FF000084FF0000B21F00701AC46ACE827
:10397000C009ACE8C009ACE8C009ACE8C0098D4694
:1039800070470446AFF300802046FCF75DFC000062
:10399000004870475402002001491820ABBEFEE7E2
:1039A0002600020070474FF04070E1EE100A7047A9
:1039B000352E2054696D6572200D0A205072657392
:1039C00073206320746F206368616E67652074687C
:1039D00065207370656564206F66206C6564200DDA
:1039E0000A204553433A2072657475726E207072D6
:1039F0006576696F73206D656E75200D0A00000095
:103A000044656275672021210D0A000043686F6FCD
:103A1000736520796F7572206F7074696F6E2028DE
:103A2000312C322C202E2E293A200D0A312E2053F3
:103A3000747564656E7420696E666F0D0A322E208F
:103A40004261736963206F7065726174696F6E0D96
:103A50000A332E2053696D706C65206C65640D0A05
:103A6000342E20416476616E6365206C65640D0AB6
:103A7000352E2054696D65720D0A362E202E2E2E9D
:103A80000D0A0000322E204261736963206F706559
:103A9000726174696F6E2028612C20622C2E2E2E8C
:103AA000290D0A612E20506C75730D0A622E205369
:103AB000756274726163740D0A632E204D756C74A7
:103AC00069706C650D0A642E20446976696465200E
:103AD0000D0A652E204D6F64756C650D0A455343C4
:103AE0003A2072657475726E2070726576696F73B4
:103AF000206D656E750D0A00332E2053696D706C54
:103B000065206C65640D0A202D205072657373204A
:103B10006B6579207220746F206D616B65206C6518
:103B20006420726564206F6E0D0A202D205072652E
:103B30007373206B6579205220746F206D616B6503
:103B4000206C656420726564206F66660D0A202D06
:103B5000205072657373206B6579206720746F2025
:103B60006D616B65206C656420677265656E206FA2
:103B70006E0D0A202D205072657373206B657920BD
:103B80004720746F206D616B65206C6564206772DF
:103B900065656E206F66660D0A204553433A2072B4
:103BA000657475726E2070726576696F73206D65CD
:103BB0006E750D0A00000000612E20536574206CA4
:103BC0006564200D0A5072657373203120666F7230
:103BD000207374617274206174206C656420310DEF
:103BE0000A5072657373203220666F72207374619D
:103BF0007274206174206C656420320D0A50726505
:103C00007373203320666F72207374617274206145
:103C100074206C656420330D0A5072657373203410
:103C200020666F72207374617274206174206C65F9
:103C30006420340D0A4553433A2072657475726EE0
:103C40002070726576696F7573206D656E750D0AEB
:103C500000000000612E2053657420646972656362
:103C600074696F6E200D0A5072657373207520663B
:103C70006F7220736574206C656420676F206672B4
:103C80006F6D20757020746F20646F776E0D0A5011
:103C900072657373206420666F7220736574206C84
:103CA000656420676F2066726F6D20646F776E2089
:103CB000746F2075700D0A4553433A207265747510
:103CC000726E2070726576696F7573206D656E75A2
:103CD0000D0A000020312E2053747564656E742027
:103CE000696E666F200D0A2049443A20313635321C
:103CF00030313739200D0A2046756C6C206E616DAD
:103D0000653A204E677579656E205468616E68204B
:103D100044616E68200D0A2049443A20313635321C
:103D200030313534200D0A2046756C6C206E616D83
:103D3000653A204E677579656E2056616E20437531
:103D40006F6E67200D0A204553433A2072657475E3
:103D5000726E2070726576696F7573206D656E7511
:103D60000D0A0000446F6E277420737570706F72B7
:103D700074000000342E20416476616E6365206C0F
:103D80006564200D0A612E20536574206C65640DF6
:103D90000A622E2053657420646972656374696FCA
:103DA0006E0D0A632E2053746172740D0A20455300
:103DB000433A2072657475726E2070726576696F11
:103DC0007573206D656E7500E83D000800000020E9
:103DD0003C000000E8010008243E00083C000020F0
:103DE0007C080000040200080095BA0A00000000E8
:103DF000000000000102030406070809000000009B
:103E00000102030401020304060708090C3A000832
:103E1000643D0008603D0008003A00080000000012
:043E2000000000009E
:04000005080001AD41
:00000001FF
