:020000040800F2
:10000000B0080020550200085D0200085F020008E9
:100010006102000863020008650200080000000099
:10002000000000000000000000000000670200085F
:1000300069020008000000006B0200086D02000861
:100040006F0200086F0200086F0200086F020008CC
:100050006F0200086F0200086F0200086F020008BC
:100060006F0200086F0200086F0200086F020008AC
:100070006F0200086F0200086F0200086F0200089C
:100080006F0200086F0200086F0200086F0200088C
:100090006F0200086F0200086F0200086F0200087C
:1000A0006F0200086F0200086F0200086F0200086C
:1000B0000D2B00086F0200086F0200086F02000895
:1000C0006F0200086F0200086F0200086F0200084C
:1000D0006F0200086F0200086F0200089F2A0008E4
:1000E0006F0200086F0200086F0200086F0200082C
:1000F0006F0200086F0200086F0200086F0200081C
:100100006F0200086F0200086F0200086F0200080B
:100110006F0200086F0200086F0200086F020008FB
:100120006F0200086F0200086F0200086F020008EB
:100130006F0200086F0200086F0200086F020008DB
:100140006F0200086F0200086F0200086F020008CB
:100150006F0200086F0200086F0200086F020008BB
:100160006F0200086F0200086F0200086F020008AB
:100170006F0200086F0200086F0200086F0200089B
:100180006F0200086F0200086F0200086F0200088B
:100190006F0200086F0200086F0200086F0200087B
:1001A0006F0200086F0200086F02000800F002F8FA
:1001B00000F041F80AA090E8000C82448344AAF1C0
:1001C0000107DA4501D100F036F8AFF2090EBAE8BE
:1001D0000F0013F0010F18BFFB1A43F0010318477B
:1001E0006831000088310000103A24BF78C878C117
:1001F000FAD8520724BF30C830C144BF04680C602D
:10020000704700000023002400250026103A28BF74
:1002100078C1FBD8520728BF30C148BF0B60704778
:10022000642902F0E385002070471FB502F033FF18
:100230001FBD10B510BD02F0F7FE1146FFF7F5FF28
:1002400002F0D0FB02F015FF03B4FFF7F2FF03BC8E
:1002500002F01AFF0948804709480047FEE7FEE719
:10026000FEE7FEE7FEE7FEE7FEE7FEE7FEE7FEE766
:1002700004480549054A064B70470000A5030008DD
:10028000AD010008B0020020B0080020B00400203A
:10029000B00400200CB50020019000908348006855
:1002A00040F480308149086000BF8048006800F455
:1002B000003000900198401C0190009818B90198F6
:1002C000B0F5A04FF1D17948006800F4003010B1CA
:1002D0000120009001E0002000900098012860D1EA
:1002E00072484030006840F08050704940310860EA
:1002F0006F48006840F440406D4908606B48083022
:1003000000686A49083108600846006840F4004007
:1003100008600846006840F4A05008606548091F5E
:100320000860081F006840F08070091F086000BF67
:100330005E48006800F000700028F9D05C48006852
:1003400040F480305A49086000BF5948406800F4C2
:1003500080300028F9D05648006840F400305449F5
:10036000086000BF5248406800F400300028F9D00F
:1003700040F20570504908604C480830006820F091
:1003800003004A49083108600846006840F002004E
:10039000086000BF45480830006800F00C000828DD
:1003A000F8D10CBD10B54548006840F470004349D1
:1003B00008603E48006840F001003C4908600020A9
:1003C0003A4908310860394800683D4908403749D2
:1003D00008603C48091D0860081F006820F4802060
:1003E000091F0860002031490C310860FFF752FFF7
:1003F0004FF0006031498039086010BD70B50020B1
:100400000022022300240221284D08352D6805F022
:100410000C0020B1042806D0082834D107E02A4D6A
:100420002A4E356033E02A4D284E35602FE01F4DAF
:100430002D1D2D68C5F380541C4D2D1D2D6805F014
:100440003F0154B1224DB5FBF1F5184E361D36680B
:10045000C6F3881605FB06F209E01B4DB5FBF1F566
:10046000124E361D3668C6F3881605FB06F20F4D90
:100470002D1D2D68C5F301456D1C6B00B2FBF3F516
:10048000124E356003E0104D104E356000BF00BFC6
:10049000064D08352D68C5F303150E4E705D0B4DE6
:1004A0002D68C540094E356070BD0000003802401F
:1004B00000700040195A4007003C024088ED00E0FF
:1004C000FFFFF6FE103000240024F400000000209E
:1004D00000127A000400002032490143324A1160C0
:1004E000704770B5002100230F22C4781CB32E4C36
:1004F000246804F4E064C4F5E064C4F30721C1F1A6
:100500000404E3B20A4144789C40E1B28478144088
:1005100021430C07210E254C05786155047804F021
:100520001F050124AC4005786D11AD0005F1E025F3
:10053000C5F8004109E0047804F01F050124AC402F
:100540001B4D0678761145F8264070BD194A0A40C1
:100550000243154B1B1F1A60704739B1124A121D16
:1005600012680243104B1B1D1A6006E00E4A121D52
:10057000126882430C4B1B1D1A607047042808D177
:100580004FF0E021096941F004014FF0E0221161D0
:1005900007E04FF0E021096921F004014FF0E0226B
:1005A000116170470000FA050CED00E000E400E086
:1005B00080E100E080FFFF1F10B5044698488442A8
:1005C00008D10121084600F087FB0021012000F03E
:1005D00083FB76E09348844208D10121022000F099
:1005E0007BFB0021022000F077FB6AE08E4884420A
:1005F00008D10121042000F06FFB0021042000F04D
:100600006BFB5EE08948844208D10121082000F09C
:1006100063FB0021082000F05FFB52E08448844225
:1006200008D10121102000F057FB0021102000F01C
:1006300053FB46E07F48844208D10121202000F08E
:100640004BFB0021202000F047FB3AE07A4884422F
:1006500008D10121402000F03FFB0021402000F0A4
:100660003BFB2EE07548844208D10121802000F038
:1006700033FB0021802000F02FFB22E070488442F1
:1006800008D10121801500F027FB0021A01500F002
:1006900023FB16E06B48844208D10121401500F08D
:1006A0001BFB0021601500F017FB0AE0664884423E
:1006B00007D10121001500F00FFB0021201500F0EB
:1006C0000BFB10BDF0B50A4600210023002400BF3B
:1006D0003DE0012505FA01F3156805EA03049C4293
:1006E00034D105684F000326BE40B5430560157937
:1006F0004E00B5400668354305601579012D02D0DE
:100700001579022D16D185684F000326BE40B543EA
:10071000856055794E00B5408668354385604568EB
:1007200001268E40B5434560456896798E40B6B245
:1007300035434560C5684F000326BE40B543C560DC
:10074000D5794E00B540C6683543C560491C1029AF
:10075000BFD3F0BD4FF6FF710160002101714171FF
:100760008171C171704708B54FF480320092009AD0
:100770000A430092009AC261C161009AC261C269D3
:100780000092C269009208BD0246002013690B4026
:100790000BB1012000E0002070470146086980B2DB
:1007A00070470246002053690B400BB1012000E066
:1007B000002070470146486980B270470183704746
:1007C000418370470AB1018300E041837047416172
:1007D000704742694A4042617047F0B500230024E7
:1007E0004D07ED0E02FA05F3CE1000F1200555F885
:1007F00026504E07F70E0F26BE40B543CF1000F12E
:10080000200646F82750CE1000F1200555F8265056
:1008100045EA0304CE1000F1200545F82640F0BD5E
:10082000000002400004024000080240000C0240A8
:10083000001002400014024000180240001C024058
:10084000002002400024024000280240F6480068D0
:1008500040F00100F44908600020F34908310860C5
:10086000F1480068F1490840EF490860F048091D67
:100870000860F048EC4984310860ED481038091DE3
:100880000860E948006820F48020E74908600020FB
:10089000E5490C310860E4498C310860704700215B
:1008A000E14A921C117011460870704710B501465C
:1008B0000022002300204A11012A02D1DA4C2368C9
:1008C00008E0022A03D1D84C7034236802E0D64CE9
:1008D0007434236801F01F02012494401C400CB1C1
:1008E000012000E0002010BD38B500200090002459
:1008F000002500BF3120FFF7D9FF05460098401CB6
:1009000000900098B0F5A04F01D0002DF2D031201A
:10091000FFF7CCFF08B1012400E00024204638BDD9
:1009200001460020C04A106820F0F80040EAC100EB
:1009300010607047C049086070470021BA4A7032A1
:1009400011701170012802D004280AD104E001219D
:10095000B54A7032117005E00521B34A703211704A
:1009600000E000BF00BF7047B4490860704770B531
:10097000049C41EA82150126C6EB530645EA06456A
:10098000054345EA0465A84E361D356070BDAA4989
:100990000866704710B5830143EA016343EA0273B6
:1009A000A14C8434236010BDA3498866704710B5FC
:1009B000830143EA016343EA02739B4C883423605A
:1009C00010BD9D49086770479B49C864704702463F
:1009D0000020954B0833186820F0EC6042EA0103D0
:1009E0001843914B083318607047024600208E4B25
:1009F0000833186820F0784042EA010318438A4B14
:100A000008331860704701460020874A0832106892
:100A100020F00300084310607047834808300068E6
:100A200000F00C007047014600207F4A0832106831
:100A300020F0F000084310607047014600207A4A19
:100A40000832106820F4E0500843106070470146F7
:100A50000020754A0832106820F4604040EAC10066
:100A600010607047F0B50021002200240225002606
:100A700002236D4F08373F6807F00C0121B10429AC
:100A800005D0082937D105E06D4F076036E06D4F7E
:100A9000076033E0644F3F1D3F68C7F38056624FE5
:100AA0003F1D3F6807F03F036EB1664FB7FBF3F79A
:100AB000DFF874C10CF1040CDCF800C0CCF3881C26
:100AC00007FB0CF40CE05E4FB7FBF3F7DFF858C1FF
:100AD0000CF1040CDCF800C0CCF3881C07FB0CF410
:100AE000514F3F1D3F68C7F301477F1C7D00B4FB9A
:100AF000F5F7076002E0524F076000BF00BF4A4FA2
:100B000008373F6807F0F00109094F4F7A5C076822
:100B1000D7404760444F08373F6807F4E051890ADF
:100B2000494F7A5C4768D74087603F4F08373F6836
:100B300007F46041490B444F7A5C4768D740C7606F
:100B4000F0BD002100F44072B2F5407F0AD1364A70
:100B50000832116821F4F8113C4A02401143324A2C
:100B600008321160304A70321268C0F30B031A4326
:100B70002D4B70331A607047304944390860704714
:100B80002E49403908607047314908607047014676
:100B90000020254A8C32106820F01F004A1E1043A6
:100BA000214A8C3210607047014600201E4A8C3268
:100BB000106820F4F8504A1E40EA02201A4A8C328B
:100BC0001060704701460020174A8C32106820F4EC
:100BD000401008431060704701460020124A8C32D2
:100BE000106820F440000843106070470146002060
:100BF0000D4A8C32106820F4403008431060704772
:100C000014490860704739B1074A3032126802430C
:100C1000054B30331A6006E0034A303212688243D3
:100C2000014B30331A60704700380240FFFFF6EA8C
:100C3000103000240030002000004742800E474260
:100C40000024F40000127A0014000020FFFCFF0FC3
:100C50005C014742E011474229B1894A12680243C8
:100C6000874B1A6004E0864A12688243844B1A60FC
:100C7000704739B1824A121D12680243804B1B1D16
:100C80001A6006E07E4A121D126882437C4B1B1DCF
:100C90001A60704739B17A4A0C3212680243784BB5
:100CA0000C331A6006E0764A0C3212688243744BA9
:100CB0000C331A60704739B1714A1032126802431E
:100CC0006F4B10331A6006E06D4A1032126882438F
:100CD0006B4B10331A60704739B1694A243A126875
:100CE0000243674B243B1A6006E0654A243A1268C7
:100CF0008243634B243B1A60704739B1604A203A03
:100D0000126802435E4B203B1A6006E05C4A203AC0
:100D1000126882435A4B203B1A60704739B1584AD7
:100D20001C3A12680243564B1C3B1A6006E0544AB8
:100D30001C3A12688243524B1C3B1A60704739B10F
:100D40004F4A143A126802434D4B143B1A6006E0B6
:100D50004B4A143A12688243494B143B1A6070475D
:100D600039B1474A103A12680243454B103B1A60AA
:100D700006E0434A103A12688243414B103B1A6026
:100D8000704739B13E4A1C32126802433C4B1C3357
:100D90001A6006E03A4A1C3212688243384B1C3310
:100DA0001A60704739B1364A203212680243344B18
:100DB00020331A6006E0324A203212688243304BF8
:100DC00020331A60704739B12D4A24321268024329
:100DD0002B4B24331A6006E0294A243212688243DE
:100DE000274B24331A60704739B1254A2C321268D8
:100DF0000243234B2C331A6006E0214A2C3212683E
:100E000082431F4B2C331A60704739B11C4A303271
:100E1000126802431A4B30331A6006E0184A303227
:100E200012688243164B30331A60704739B1144A46
:100E3000273A12780243124B273B1A7006E0104AF9
:100E4000273A127882430E4B273B1A7070470C48A2
:100E50004030006840F080700949403108607047B8
:100E600001460020064A283A12680A400AB10120C9
:100E700000E00020704702492639087070470000E2
:100E80003438024010B50446FA48844208D10121A2
:100E90001020FFF765FF00211020FFF761FF57E0EA
:100EA000F548844209D101214804FFF748FF002199
:100EB0004FF40030FFF743FF4AE0F048844209D185
:100EC00001218804FFF73BFF00214FF48020FFF74A
:100ED00036FF3DE0EA48844209D10121C804FFF70A
:100EE0002EFF00214FF40020FFF729FF30E0E548F6
:100EF000844209D101210805FFF721FF00214FF4A9
:100F00008010FFF71CFF23E0DF48844208D1012155
:100F10002020FFF725FF00212020FFF721FF17E009
:100F2000DA48844209D101218807FFF708FF002130
:100F30004FF08040FFF703FF0AE0D548844207D115
:100F400001214005FFF7FBFE00216005FFF7F7FEDA
:100F500010BD2DE9FF4705460E460024A14600BFFF
:100F6000A046B08900B100BF2C8A24F44054F08818
:100F700004432C82AC8941F20C608443B0883189EF
:100F80000843718908430443AC81AC8A24F440745B
:100F9000B0890443AC826846FFF764FDB5488542DA
:100FA00002D0B948854202D1DDF80C9001E0DDF8AD
:100FB0000890A88900F4004040B109EBC90000EB9B
:100FC000091031684900B0FBF1F707E009EBC900EF
:100FD00000EB091031688900B0FBF1F76420B7FB22
:100FE000F0F004012009642101FB1078A88900F4C5
:100FF000004040B1322000EBC800B0FBF1F000F03F
:101000000700044308E0322000EB08106421B0FB25
:10101000F1F000F00F0004432C81BDE8FF874FF48E
:101020001651016000218180C18001810C21418124
:1010300000218181704710B502460020108A20F4FB
:1010400070600B884C8823438C882343CC882343CF
:101050001843108210BD0021018041808180C18031
:10106000704721B1828942F40052828104E0828972
:101070004DF6FF731A4082817047028B02F47F4263
:101080000283028B0A430283704721B1828942F4B2
:101090000042828103E08289C2F30E02828170479E
:1010A00021B1828A42F40062828204E0828A4FF295
:1010B000FF731A4082827047C1F308028280704732
:1010C00001468888C0F308007047028A4FF6F07323
:1010D0001A400282028A0A430282704721B1828941
:1010E00042F00202828104E082894FF6FD731A40C9
:1010F0008281704782894FF2FF731A408281828910
:101100000A4382817047028A4FF6DF731A400282D7
:10111000028A0A430282704721B1028A42F4804265
:10112000028204E0028A4BF6FF731A400282704783
:10113000818941F001018181704721B1828A42F0A9
:101140000802828204E0828A4FF6F7731A40828294
:101150007047028BD2B20283028B42EA01220283E1
:10116000704721B1828A42F02002828204E0828AA2
:101170004FF6DF731A408282704721B1828A42F0B3
:101180001002828204E0828A4FF6EF731A40828254
:101190007047828A4FF6FB731A408282828A0A4322
:1011A0008282704721B1828A42F00202828204E088
:1011B000828A4FF6FD731A40828270471AB1838A81
:1011C0000B43838202E0838A8B4383827047F0B5AE
:1011D0000346002400260025002040F66A17B94285
:1011E00000D100BF1846C1F3421401F01F060127C9
:1011F00007FA06F5012C01D10C3004E0022C01D1D4
:10120000103000E014301AB107682F43076002E085
:101210000768AF430760F0BD02460020B1F5007FCC
:1012200000D100BF13880B400BB1012000E000206B
:10123000704701F40072B2F5007F00D100BFCA43CD
:101240000280704770B5024600240023002500206C
:1012500040F66A16B14200D100BFC1F3421501F059
:101260001F03012606FA03F3012D13D1968933409B
:1012700017E000000010014000440040004800401A
:10128000004C004000500040001401400078004035
:10129000007C0040022D02D1168A334001E0968A7C
:1012A00033400C12012606FA04F41688344013B1B8
:1012B0000CB1012000E0002070BD10B50022002319
:1012C00040F66A14A14200D100BF0A1201249440E2
:1012D000A3B2DC43048010BD10B50446FE4884422E
:1012E00008D101210846FFF73BFD00210120FFF74F
:1012F00037FD9DE0B4F1804F08D101210846FFF78A
:101300001EFD00210120FFF71AFD91E0F348844201
:1013100008D101210220FFF712FD00210220FFF772
:101320000EFD85E0EE48844208D101210420FFF73C
:1013300006FD00210420FFF702FD79E0E948844220
:1013400008D101210820FFF7FAFC00210820FFF74F
:10135000F6FC6DE0E448844208D101211020FFF73B
:10136000EEFC00211020FFF7EAFC61E0DF48844238
:1013700008D101212020FFF7E2FC00212020FFF707
:10138000DEFC55E0DA48844208D101210220FFF753
:10139000E7FC00210220FFF7E3FC49E0D548844246
:1013A00009D101210804FFF7DBFC00214FF4803054
:1013B000FFF7D6FC3CE0D048844209D10121480423
:1013C000FFF7CEFC00214FF40030FFF7C9FC2FE0FF
:1013D000CA48844209D101218804FFF7C1FC0021D9
:1013E0004FF48020FFF7BCFC22E0C548844208D1BE
:1013F00001214020FFF7A3FC00214020FFF79FFCC4
:1014000016E0C048844208D101218020FFF797FCF4
:1014100000218020FFF793FC0AE0BB48844207D1FB
:1014200001218015FFF78BFC0021A015FFF787FC39
:1014300010BD00220288A84B98420ED0AC4B9842B7
:101440000BD0B0F1804F08D0A44B984205D0A44BEC
:10145000984202D0A34B984204D14FF68F731A40A2
:101460004B881A43A04B984207D0A04B984204D017
:101470004FF6FF431A400B891A4302804B68C36240
:101480000B880385944B984202D0994B984201D126
:101490008B7A03860123838270474FF0FF314160CE
:1014A0000021018001814180817270470185828223
:1014B00070470A46002101884FF68F731940114387
:1014C0000180704741627047C16270470146486AB7
:1014D00070470146088D704721B1028842F0020230
:1014E000028004E002884FF6FD731A4002807047C4
:1014F00021B1028842F00402028004E002884FF623
:10150000FB731A400280704721B1028842F08002CA
:10151000028004E002884FF67F731A400280704711
:1015200002884FF6F7731A40028002880A4302804D
:10153000704702884FF6FF431A40028002880A4330
:101540000280704721B1028842F00102028004E06B
:1015500002884FF6FE731A400280704770B500246F
:1015600000220023058C4FF6FE7635400584028C60
:101570008388048B4FF68F752C40B51E2C400D8848
:101580002C43751E2A408D892A434D882A43524D8B
:10159000A84202D0564DA84213D14FF6F7752A4003
:1015A000CD892A434FF6FB752A408D882A434FF692
:1015B000FF652B404FF6FF552B400D8A2B434D8A7C
:1015C0002B43838004838D684563028470BD70B5AE
:1015D000002400220023058C4FF6EF763540058469
:1015E000028C8388048B48F6FF752C404FF6FF452C
:1015F0002C400D884FF6FF7606EA05252C434FF662
:10160000DF752A408D8906EA05152A434D8806EACA
:1016100005152A43304DA84202D0354DA8421DD1B0
:101620004FF67F752A40CD894FF6FF7606EA0515FD
:101630002A434FF6BF752A408D8806EA05152A43CE
:101640004FF6FF352B404FF2FF752B400D8A06EA0F
:1016500085052B434D8A06EA85052B438380048349
:101660008D688563028470BD70B50024002200235C
:10167000058C4FF6FF6635400584028C8388848B89
:101680004FF68F752C404FF6FC752C400D882C437F
:101690004FF6FF552A408D894FF6FF7606EA05255D
:1016A0002A434D8806EA05252A430B4DA84202D05D
:1016B0000F4DA84238D14FF2FF752A40CD894FF621
:1016C000FF7606EA05252A434FF6FF352A408D8826
:1016D00006EA05252A4319E0000001400004004005
:1016E00000080040000C00400010004000140040C2
:1016F0000004014000400140004401400048014016
:1017000000180040001C0040002000404EF6FF750D
:101710002B404DF6FF752B400D8A06EA05152B432D
:101720004D8A06EA05152B43838084838D68C56343
:10173000028470BD70B5002200230024058C4EF693
:10174000FF7635400584038C8488828B48F6FF75CC
:101750002A404FF6FF452A400D884FF6FF7606EAED
:1017600005252A434DF6FF752B408D8906EA053580
:101770002B434D8806EA05352B43FE4DA84202D087
:10178000FD4DA84208D14BF6FF752C400D8A4FF64F
:10179000FF7606EA85152C43848082838D68056474
:1017A000038470BD0021018041808180816081813E
:1017B000C18101824182704770B503460020002438
:1017C0001846183001258D40ACB21D8CA5431D84F0
:1017D00009B108290AD100EB610005684FF68F7640
:1017E000354005600568154305600FE00D1FC5F322
:1017F0004E052844056848F6FF76354005600568C3
:101800004FF6FF7606EA02263543056070BD416358
:10181000704781637047C1637047016470470A462F
:101820000021018B4FF68F731940114301837047DC
:101830000A460021018B48F6FF7319404FF6FF73EB
:1018400003EA02231943018370470A460021818B72
:101850004FF68F7319401143818370470A46002168
:10186000818B48F6FF7319404FF6FF7303EA02239A
:101870001943818370470A460021018B4FF6F773A5
:1018800019401143018370470A460021018B4FF232
:10189000FF7319404FF6FF7303EA022319430183D4
:1018A00070470A460021818B4FF6F77319401143A8
:1018B000818370470A460021818B4FF2FF731940E4
:1018C0004FF6FF7303EA02231943818370470A46E8
:1018D0000021018B4FF6FB731940114301837047C0
:1018E0000A460021018B4FF6FF3319404FF6FF7374
:1018F00003EA02231943018370470A460021818BC2
:101900004FF6FB7319401143818370470A4600214B
:10191000818B4FF6FF3319404FF6FF7303EA022322
:101920001943818370470A460021018B4FF67F736C
:1019300019401143018370470A460021018BC1F30E
:101940000E014FF6FF7303EA022319430183704728
:101950000A460021818B4FF67F7319401143818322
:1019600070470A460021818BC1F30E014FF6FF73C9
:1019700003EA02231943818370470A460021018C40
:101980004FF6FD7319401143018470470A46002148
:10199000018C4FF6F77319401143018470470A46D2
:1019A0000021018C4FF6DF7319404FF6FF7303EAF5
:1019B00002131943018470470A460021018C4FF637
:1019C0007F7319404FF6FF7303EA02131943018432
:1019D00070470A460021018C4FF6FF5319404FF61D
:1019E000FF7303EA02231943018470470A4600216A
:1019F000018C4FF2FF7319404FF6FF7303EA022385
:101A00001943018470470A460021018C4DF6FF738B
:101A100019404FF6FF7303EA0233194301847047FC
:101A200030B5002301248C40A3B2048C9C43048471
:101A3000048C02FA01F5ADB22C43048430BD30B5FC
:101A4000002304248C40A3B2048C9C430484048CA3
:101A500002FA01F5ADB22C43048430BD828B4FF203
:101A6000FF331A408283828B4FF6FF7303EA012310
:101A70001A4382837047F0B50C46154600210022B8
:101A80000026078C4EF6FF7C07EA0C070784818B43
:101A9000028C4FF6FF7707EA043640F6FF473940DD
:101AA0004FF6FF7707EA052739434FF6FF7707EA36
:101AB0000337394345F6FF773A4046F480573A43B7
:101AC00081830284F0BD828B4FF6F3731A408283C8
:101AD000828B0A4382837047F0B50C46154600217D
:101AE00000220026078C4FF6FF6C07EA0C070784DC
:101AF000818B028C4FF6FF7707EA04264FF60C77AE
:101B000039404FF6FF7707EA03172F4339434FF267
:101B1000FF573A4046F480773A4381830284F0BD10
:101B2000028B4FF2FF331A400283028B4FF6FF7392
:101B300003EA01231A4302837047F0B50C461546A9
:101B4000002100220026078C4FF6EF7C07EA0C07E5
:101B50000784018B028C4FF6FF7707EA041640F6E4
:101B6000FF4739404FF6FF7707EA033739434FF60F
:101B7000FF7703E0000001400004014007EA052769
:101B800039434FF65F773A4046F010073A430183F6
:101B90000284F0BD028B4FF6F3731A400283028B6E
:101BA0000A4302837047F0B50C4615460021002217
:101BB000068C4FF6FE773E400684018B028C4FF672
:101BC0000C7631407E1C06EA03162E4331434FF655
:101BD000F576324044F00106324301830284F0BDC1
:101BE00070B505460C46208850B92389A2886188C3
:101BF0002846FFF7D8FFE1882846FFF7CBFF25E00E
:101C0000208804280AD12389A28861882846FFF702
:101C100094FFE1882846FFF783FF17E02088082813
:101C20000AD12389A28861882846FFF755FFE188F9
:101C30002846FFF748FF09E02389A28861882846E3
:101C4000FFF719FFE1882846FFF708FF70BD002164
:101C500001804180012181800021C1800181704784
:101C60002DE9F04105460C4600260127608808B999
:101C7000022600E00026A088012801D1022700E00A
:101C800001272088A0B92389A28861882846FFF708
:101C90008AFFE1882846FFF77DFF23893A463146CF
:101CA0002846FFF74AFFE1882846FFF739FF13E08F
:101CB0002389A28861882846FFF73FFFE1882846EC
:101CC000FFF72EFF23893A4631462846FFF76BFF80
:101CD000E1882846FFF75EFFBDE8F0810146486BCA
:101CE00070470146886B70470146C86B70470146D4
:101CF000086C70470A884B881A438B881A43CB8834
:101D00001A430B891A434B891A438B891A43A0F84B
:101D1000442070470021018041808180C180018181
:101D200041818181704731B1B0F8442042F40042D2
:101D3000A0F8442005E0B0F84420C2F30E02A0F859
:101D40004420704721B1828842F00402828004E07E
:101D500082884FF6FB731A408280704721B18288D7
:101D600042F00102828004E082884FF6FE731A403E
:101D7000828070471AB183890B43838102E0838993
:101D80008B43838170478182704702460020138A0B
:101D90000B400BB1012000E000207047CA430282D3
:101DA000704730B50246002000230024158A05EA5A
:101DB0000103958905EA010413B10CB1012000E08B
:101DC000002030BDCA430282704741EA0203A0F8F6
:101DD000483070471AB183890B43838102E08389BD
:101DE0008B438381704721B1828842F00802828050
:101DF00004E082884FF6F7731A40828070470189A9
:101E00004FF6F8721140018170470A46002101899E
:101E10004FF68F73194011430181704730B5044666
:101E20000D4629462046FFF7F0FF208940F00700C5
:101E3000208130BD2DE9F04104460D4616461F466F
:101E4000602D06D13B46012231462046FFF775FE44
:101E500005E03B46012231462046FFF7A4FE294615
:101E60002046FFF7D2FF208940F007002081BDE81F
:101E7000F08130B50C4600210189C9B24FF6FF75DB
:101E800005EA0325154325432943018130BD2DE98A
:101E9000F04105460E4617469846002443463A460A
:101EA00031462846FFF7E5FF2C894FF6F8700440CD
:101EB00044F007044FF68F70044044F070042C8106
:101EC000BDE8F081F0B504460D4616461F463B4678
:101ED000324629462046FFF7CCFF208940F4804057
:101EE0002081F0BD82884FF68F731A4082808288ED
:101EF0000A438280704702894FF6F8731A400281C4
:101F000002890A430281704702894FF67F731A40A3
:101F1000028102890A4302817047F0B50C461546DA
:101F20001E460021002200230189028B038C4FF6FC
:101F3000F877394021434FF6FC473A4040F2011709
:101F40003A434FF6DD773B404FF6FF7707EA061737
:101F50002F433B43018102830384F0BD21B182887A
:101F600042F08002828004E082884FF67F731A403C
:101F700082807047A0F850107047000070B5F74C91
:101F8000204600F06FFF85B22A462146F44800F053
:101F900043FE012240F22771F248FFF718F90122AF
:101FA00011469007FFF7E6FE01218807FFF7CAFAFE
:101FB00000BFED4800F000FE0028FAD1EA4800F02A
:101FC00002FEEA490870084600781B28F1D1002279
:101FD00001218807FFF7CEFE00214FF08040FFF778
:101FE000B1FAE348006800F03DFF85B22A46E048B8
:101FF0000168DB4800F010FE012240F22771D94849
:10200000FFF7E5F870BD2DE9F047DA4CDAA5DFA659
:10201000E3A70FF2A438204600F024FF1FFA80F94E
:102020004A462146CE4800F0F7FD012240F22771D2
:10203000CC48FFF7CCF800BFCB4800F0BDFD00282E
:10204000FAD1C94800F0BFFDC849087008460078B9
:1020500052281ED004DC1B285AD047286CD142E0FD
:1020600067282BD0722867D14FF4804000F05DFEC6
:10207000284600F0F7FE1FFA80F94A462946B8487C
:1020800000F0CAFD012240F22771B648FFF79FF821
:1020900071E04FF4804000F04FFE304600F0E2FE69
:1020A0001FFA80F94A463146AD4800F0B5FD0122DD
:1020B00040F22771AB48FFF78AF85CE04FF400501C
:1020C00000F033FE384600F0CDFE1FFA80F94A4694
:1020D0003946A34800F0A0FD012240F22771A14833
:1020E000FFF775F847E04FF4005000F025FE40463A
:1020F00000F0B8FE1FFA80F94A464146984800F0C1
:102100008BFD012240F227719648FFF760F832E01C
:102110009748006800F0A6FE1FFA80F94A469448E6
:1021200001688F4800F078FD012240F227718D4848
:10213000FFF74DF8BDE8F087A548006800F092FE73
:102140001FFA80F94A46A2480168854800F064FDFC
:10215000A048006800F086FE1FFA80F94A469D48B4
:1021600001687F4800F058FD012240F227717D4848
:10217000FFF72DF800BF5FE7F0B50346002000250C
:102180005C5C2D2C4FD1451E4C1C49E01E5D303E41
:102190000A2E42D2DFE806F0050B11171D23292F66
:1021A000353B00EB8006002707EB460036E000EBEE
:1021B0008006012707EB460030E000EB800602278F
:1021C00007EB46002AE000EB8006032707EB4600FA
:1021D00024E000EB8006042707EB46001EE000EB3E
:1021E0008006052707EB460018E000EB800606276F
:1021F00007EB460012E000EB8006072707EB4600DE
:102200000CE000EB8006082707EB460006E000EB39
:102210008006092707EB460000E000BF00BF641CF2
:102220009442B3DD4FE001250C4649E01E5D303E8F
:102230000A2E42D2DFE806F0050B11171D23292FC5
:10224000353B00EB8006002707EB460036E000EB4D
:102250008006012707EB460030E000EB80060227EE
:1022600007EB46002AE000EB8006032707EB460059
:1022700024E000EB8006042707EB46001EE000EB9D
:102280008006052707EB460018E000EB80060627CE
:1022900007EB460012E000EB8006072707EB46003D
:1022A0000CE000EB8006082707EB460006E000EB99
:1022B0008006092707EB460000E000BF00BF641C52
:1022C0009442B3DD00BF6843F0BD0146002000E04A
:1022D000401C0A5C2E2AFBD170472DE9F0430746CB
:1022E00000260025A9463846FFF7EFFF8046002468
:1022F00014E0385D202810D1621E00213846FFF717
:102300003BFF0646A8F10102E11C3846FFF734FF07
:102310000546601C17F8009002E0641C4445E8DBA9
:1023200000BFB9F12A0F0ED0B9F12B0F06D0B9F1C9
:102330002D0F06D0B9F12F0F0ED107E07019BDE8AF
:10234000F083701BFBE706FB05F0F8E70DB92248A8
:10235000F5E796FBF5F0F2E72048F0E7A03000083B
:102360004C000020004800404E01002034000020B6
:1023700024000020E83100084C6564207265642068
:102380006973206F6E2021210D0A00004C656420C6
:10239000726564206973206F66662021210D0A0032
:1023A0004C656420677265656E206973206F6E20CE
:1023B00021210D0A000000004C65642067726565EC
:1023C0006E206973206F66662021210D0A000000CF
:1023D000280000202C000020FFC99A3BC76B9F06F5
:1023E00010B5002400BFFE4800F0E6FB0028FAD13B
:1023F000FB4800F0E8FBFB490870084600782E28EF
:1024000010D108460078F8490855641CF548017851
:10241000F64800F0C1FB012240F22771F448FEF7B4
:10242000D6FE10BDEF480078302803DBED48007879
:10243000392813DDEB4800782A280FD0E9480078C6
:102440002B280BD0E74800782D2807D0E5480078E6
:102450002F2803D0E34800782028C4D1E148007831
:10246000E1490855641CDF480178E04800F094FB1E
:10247000012240F22771DE48FEF7A9FEB3E72DE9FD
:10248000F04F89B0DB4C204600F0ECFC80B20246F5
:1024900021460190D54800F0BFFB012240F2277190
:1024A000D348FEF794FED4A5D6A6DAA70FF2743867
:1024B0000FF27C390FF2843A0FF28C3B00BFC84810
:1024C00000F07AFB0028FAD1C54800F07CFBC54932
:1024D00008700846007862287ED004DC1B2807D0EC
:1024E00061287AD119E0632878D06428F9D15FE1B6
:1024F000DD48006800F0B6FC80B202460190DA4880
:102500000168BA4800F088FB012240F22771B84800
:10251000FEF75DFE09B0BDE8F08F284600F0A2FC92
:1025200080B2024629460190B04800F075FB48464B
:1025300000F098FC80B2024649460190AB4800F09A
:102540006BFB012240F22771A948FEF740FEFFF71E
:1025500047FFA548FFF7C1FE0890C4A102A8089A4A
:1025600000F0FCFB02A80790504600F07BFC80B214
:102570000246514601909D4800F04EFB079800F03E
:1025800071FC80B2024601909848079900F044FB24
:10259000584600F067FC80B20246594601909348C5
:1025A00000F03AFB012240F227719148FEF70FFE3E
:1025B00000BF8B4800F000FB0028FAD1884800F0EB
:1025C00002FB88490870084600781B28F1D1204694
:1025D00000F048FC80B202E010E0A7E17BE0024698
:1025E00021460190814800F017FB012240F227713B
:1025F0007F48FEF7ECFD00BF00BFC0E1304600F0B1
:1026000031FC80B2024631460190784800F004FB6C
:10261000484600F027FC80B20246494601907348C4
:1026200000F0FAFA012240F227717148FEF7CFFD5F
:10263000FFF7D6FE6C48FFF750FE08908BA102A86A
:10264000089A00F08BFB02A80790504600F00AFCA5
:1026500080B2024651460190644800F0DDFA0798C6
:1026600000F000FC80B2024601906048079900F03B
:10267000D3FA584600F0F6FB80B202465946019064
:102680005A4800F0C9FA012240F227715848FEF773
:102690009EFD00BF524800F08FFA0028FAD1504842
:1026A00000F091FA4F490870084600781B28F1D1D4
:1026B000204600F0D7FB80B20246214601904B48ED
:1026C00000F0AAFA012240F227714948FEF77FFD87
:1026D00000BF00BF53E1384600F0C4FB80B20246A1
:1026E00039460190414800F097FA484600F0BAFB9D
:1026F00080B20246494601903C4800F08DFA012222
:1027000040F227713A48FEF762FDFFF769FE36484E
:10271000FFF7E3FD089055A102A8089A00F01EFB00
:1027200002A80790504600F09DFB80B20246514639
:1027300001902E4800F070FA079800F093FB80B2E9
:10274000024601902948079900F066FA584600F0C1
:1027500089FB80B2024659460190244800F05CFA99
:10276000012240F227712248FEF731FD00BF1C48CC
:1027700000F022FA0028FAD1194800F024FA194989
:102780000870084600781B28F1D1204600F06AFB4B
:1027900080B2024621460190144800F03DFA012221
:1027A00040F227711248FEF712FD00BF00BFE6E0BD
:1027B000404600F057FB80B20246414601900B486C
:1027C00000F02AFA484600F04DFB80B20246494626
:1027D0000190064800F020FA012240F2277147E0FC
:1027E0004E01002034000020380000204C00002062
:1027F0000048004074310008612E20506C75730D44
:102800000A000000622E2053756274726163740DB9
:102810000A000000632E204D756C7469706C650DA4
:102820000A000000642E204469766964650D0A0080
:10283000457870726573696F6E3A20000D0A5265B3
:1028400073756C743A2000000D0A4553433A2072A8
:10285000657475726E2070726576696F73206D6530
:102860006E750D0A000000002400002025640000A1
:10287000AE48FEF7ACFCFFF7B3FDAD48FFF72DFD0A
:102880000890AC490898884202D1ABA0079007E0B5
:10289000AFF2280102A8089A00F060FA02A8079097
:1028A000504600F0DFFA80B2024651460190A84837
:1028B00000F0B2F9079800F0D5FA80B20246019014
:1028C000A348079900F0A8F9584600F0CBFA80B267
:1028D0000246594601909E4800F09EF9012240F2BE
:1028E00027719248FEF773FC00BF9A4800F064F924
:1028F0000028FAD1974800F066F997490870084611
:1029000000781B28F1D1204600F0ACFA80B20246D4
:10291000214601908E4800F07FF9012240F2277194
:102920008248FEF754FC00BF00BF28E08B480068D7
:1029300000F098FA80B20246019088480168844805
:1029400000F06AF98648006800F08CFA80B202460E
:102950000190834801687E4800F05EF9584600F017
:1029600081FA80B2024659460190794800F054F944
:10297000012240F227716D48FEF729FC00BF9EE559
:1029800070B5784C204600F06DFA85B22A46214693
:102990006F4800F041F9012240F227716348FEF7C9
:1029A00016FC00BF6B4800F007F90028FAD169480F
:1029B00000F009F968490870084600781B28F1D131
:1029C0006948006800F04EFA85B22A4666480168F8
:1029D0005F4800F021F9012240F227715348FEF7C9
:1029E000F6FB70BDFDF732FF00F086F900F028F924
:1029F000574800F0BDF8574800F0BAF85A48006848
:102A000000F030FA84B2224657480168504800F07E
:102A100003F9012240F227714448FEF7D8FB00BFBA
:102A20004C4800F0C9F80028FAD14A4800F0CBF829
:102A300049490870084600783138052811D2DFE886
:102A400000F00306090C0D00FFF79AFF26E0FFF7E0
:102A500016FD23E0FFF7D7FA20E01FE0FFF78EFA1C
:102A60001CE03E48006800F0FDF984B222463B4875
:102A70000168374800F0D0F83948006800F0F2F9F2
:102A800084B2224636480168314800F0C5F8012278
:102A900040F227712548FEF79AFB00BFC0E710B54A
:102AA00040F227712148FEF7CDFB012818D12848B4
:102AB00000F082F840B9264800F085F80446214627
:102AC0001A48FEF7F9FA0BE0002240F22771174886
:102AD000FEF77DFB012240F225511448FEF777FBFB
:102AE00040F225511148FEF7ADFB01280DD100221F
:102AF00040F225510D48FEF76AFB0C48FEF7E0FA5C
:102B0000C4B22146134800F047F810BD10B50121AA
:102B10008807FFF746F940B14FF480411348FDF7AD
:102B200058FE01218807FFF74DF910BD004800400D
:102B300038000020FFC99A3B45787072657373694D
:102B40006F6E20496E76616C69642021210000005F
:102B50004C0000204E0100203400002028000020FE
:102B60002C000020A8320008240000200018024099
:102B700010B504460020A4F800014FF480712046EF
:102B800000F08FF910BD01460020B1F80021B2F528
:102B9000807F00D10120704710B503460C461846CF
:102BA000FFF7F1FF38B9B3F800011C54B3F8000186
:102BB000401CA3F8000110BD01460020B1F800211F
:102BC00002B90120704730B503460025002418469D
:102BD000FFF7F2FFA0B91D78B3F80001401EA3F87B
:102BE000000100BF04E0601C185C1855601C84B232
:102BF000B3F80001A042F6DC0020B3F800115854ED
:102C0000284630BD10B5034600241846FFF7D4FF10
:102C100000B91C78204610BDF0B507460D46164693
:102C2000002405E0295D3846FFF7B6FF601C84B23A
:102C3000B44204DA3846FFF7A6FF0028F2D0F0BD10
:102C400000B587B005A8FDF785FD01A8FEF7E7F9F7
:102C500001218804FEF71EF801210220FDF7D3FFB1
:102C600007220A212248FDF7B8FD07220B21204840
:102C7000FDF7B3FD02208DF8180000208DF81A0032
:102C80004FF44060059001208DF81B0003208DF863
:102C9000190005A91648FDF715FD4FF416500190CF
:102CA0000020ADF810000C20ADF80E000020ADF8AB
:102CB0000C00ADF80A00ADF8080001A90D48FEF7B8
:102CC00048F94FF44070FDF707FC27208DF800000D
:102CD00001208DF8030000208DF801006846FDF703
:102CE00000FC01210348FEF7BCF907B000BD00005D
:102CF00000040240004800401CB501214020FDF7BF
:102D000082FF4FF4C040009001208DF804000020A5
:102D10008DF8060003208DF8050000208DF80700CF
:102D200069460D48FDF7CEFC1CBD10B50446214692
:102D30000948FDF743FD10BD10B50446214606487D
:102D4000FDF73EFD10BD0449143109684140024AB7
:102D50001432116070470000001802400FB41CB517
:102D6000074B06AA7B4469460090059800F01DF9C0
:102D70000020694600F02CF91CBC5DF814FB000033
:102D8000690200002DE9F0410E4604460020206251
:102D90002046E168884730B3252805D0D4E90121D1
:102DA0009047206A401CF2E7E168204600278847E8
:102DB000050018D0A5F14100192802D820354FF49C
:102DC00000673246294620462760FDF729FA40B1C0
:102DD000012804D0F61D26F007060836D8E7361D70
:102DE000D6E72846DAE7206ABDE8F0812DE9F04110
:102DF0000646002410687529314616A510D0AFF399
:102E00000080002802DA404213A507E031688A07F3
:102E100001D512A502E0490704D511A5012401E05E
:102E2000AFF3008000210A2206F1240709E0B0FB7D
:102E3000F2FCB0FBF2F302FB1C0030307854184671
:102E4000491C0028F3D123462A463046BDE8F0410C
:102E500000F04CB8000000002D0000002B00000026
:102E60002000000010B5431C02E010F8011B71B1F6
:102E70008107FAD14FF0013202C88C1A8C4314EA50
:102E8000C211F9D0C01A0A0603D0C01E10BDC01A64
:102E900010BD0A0401D0801E10BD0902FCD0401EE6
:102EA00010BD4FF000020429C0F0128010F0030C96
:102EB00000F09580CCF1040CBCF1020F18BF00F8B3
:102EC000012BA8BF20F8022BA1EB0C0100F087B862
:102ED0005FEAC17C24BF00F8012B00F8012B48BF3A
:102EE00000F8012B70477047704770472DE9F04795
:102EF0000D4699469246044600F12408016888066A
:102F000004D5E06921F01001216000E00120A84211
:102F100001DD471B00E00027A1697A1902EB0900D7
:102F2000081AA0612078C00602D42046AFF30080C2
:102F3000002608E0D4E901211AF806009047206A2B
:102F4000401C761C20624E45F4DB2078C0060AD572
:102F50002046AFF3008006E0D4E9012130209047FD
:102F6000206A401C2062381EA7F10107F4DC07E04C
:102F7000D4E9012118F805009047206A401C20621E
:102F8000281EA5F10105F3DC2046AFF30080207870
:102F9000000602D50220BDE8F0870120FBE7000013
:102FA00001694A1C02610878704700B58FB0CDE90D
:102FB00001310021059105497944CDE903101146FD
:102FC0006846FFF7DFFE0FB000BD0000E5FFFFFF22
:102FD0000A6802F8010B0A6070474FF0000200B562
:102FE000134694469646203922BFA0E80C50A0E82C
:102FF0000C50B1F12001BFF4F7AF090728BFA0E8DA
:103000000C5048BF0CC05DF804EB890028BF40F8A5
:10301000042B08BF704748BF20F8022B11F0804FE7
:1030200018BF00F8012B7047754600F029F8AE462E
:1030300005006946534620F00700854618B020B5C4
:10304000FDF716F9BDE820404FF000064FF00007ED
:103050004FF000084FF0000B21F00701AC46ACE840
:10306000C009ACE8C009ACE8C009ACE8C0098D46AD
:1030700070470446AFF300802046FDF7E5F80000F6
:10308000004870475002002001491820ABBEFEE7FF
:103090002600020070474FF04070E1EE100A7047C2
:1030A000352E2054696D6572200D0A2050726573AB
:1030B00073206320746F206368616E676520746895
:1030C00065207370656564206F66206C6564200DF3
:1030D0000A204553433A2072657475726E207072EF
:1030E0006576696F73206D656E75200D0A000000AE
:1030F00044656275672021210D0A000043686F6FE7
:10310000736520796F7572206F7074696F6E2028F7
:10311000312C322C202E2E293A200D0A312E20530C
:10312000747564656E7420696E666F0D0A322E20A8
:103130004261736963206F7065726174696F6E0DAF
:103140000A332E2053696D706C65206C65640D0A1E
:10315000342E20416476616E6365206C65640D0ACF
:10316000352E2054696D65720D0A362E202E2E2EB6
:103170000D0A0000322E204261736963206F706572
:10318000726174696F6E2028612C20622C2E2E2EA5
:10319000290D0A612E20506C75730D0A622E205382
:1031A000756274726163740D0A632E204D756C74C0
:1031B00069706C650D0A642E204469766964652027
:1031C0000D0A652E204D6F64756C650D0A455343DD
:1031D0003A2072657475726E2070726576696F73CD
:1031E000206D656E750D0A00332E2053696D706C6D
:1031F00065206C65640D0A202D2050726573732064
:103200006B6579207220746F206D616B65206C6531
:103210006420726564206F6E0D0A202D2050726547
:103220007373206B6579205220746F206D616B651C
:10323000206C656420726564206F66660D0A202D1F
:10324000205072657373206B6579206720746F203E
:103250006D616B65206C656420677265656E206FBB
:103260006E0D0A202D205072657373206B657920D6
:103270004720746F206D616B65206C6564206772F8
:1032800065656E206F66660D0A204553433A2072CD
:10329000657475726E2070726576696F73206D65E6
:1032A0006E750D0A0000000020312E2053747564E5
:1032B000656E7420696E666F200D0A2049443A20BD
:1032C0003136353230313739200D0A2046756C6C75
:1032D000206E616D653A204E677579656E20546881
:1032E000616E682044616E68200D0A2049443A20CE
:1032F0003136353230313534200D0A2046756C6C4C
:10330000206E616D653A204E677579656E20566155
:103310006E2043756F6E67200D0A204553433A2097
:1033200072657475726E2070726576696F75732040
:103330006D656E750D0A0000446F6E2774207375FD
:1033400070706F7274000000683300080000002085
:1033500038000000E8010008A03300083800002011
:1033600078080000040200080095BA0A0000000076
:103370000000000001020304060708090000000025
:10338000010203040102030406070809FC300008D7
:103390003833000834330008F03000080000000023
:04000005080001AD41
:00000001FF
